{
  "_format": "hh-sol-artifact-1",
  "contractName": "Collection721",
  "sourceName": "contracts/hydro/hydro-dftsw/Collection721.sol",
  "abi": [
    {
      "inputs": [
        {
          "components": [
            {
              "internalType": "string",
              "name": "_name",
              "type": "string"
            },
            {
              "internalType": "string",
              "name": "_symbol",
              "type": "string"
            },
            {
              "internalType": "address",
              "name": "_feeDestination",
              "type": "address"
            },
            {
              "internalType": "uint256",
              "name": "_maxMintInTotalPerWallet",
              "type": "uint256"
            },
            {
              "internalType": "bytes32",
              "name": "_saleConfigRoot",
              "type": "bytes32"
            },
            {
              "internalType": "address",
              "name": "_msgSigner",
              "type": "address"
            },
            {
              "internalType": "string",
              "name": "_baseURI",
              "type": "string"
            },
            {
              "internalType": "uint256",
              "name": "_revealTime",
              "type": "uint256"
            },
            {
              "internalType": "uint96",
              "name": "_royaltyBasis",
              "type": "uint96"
            },
            {
              "internalType": "address",
              "name": "_platformOwner",
              "type": "address"
            },
            {
              "internalType": "uint256",
              "name": "_maxMintCap",
              "type": "uint256"
            },
            {
              "internalType": "address",
              "name": "_priceFeedAddress",
              "type": "address"
            }
          ],
          "internalType": "struct Collection721.ConstructorArgs",
          "name": "args",
          "type": "tuple"
        }
      ],
      "stateMutability": "payable",
      "type": "constructor"
    },
    {
      "inputs": [
        {
          "internalType": "address",
          "name": "operator",
          "type": "address"
        }
      ],
      "name": "OperatorNotAllowed",
      "type": "error"
    },
    {
      "anonymous": false,
      "inputs": [
        {
          "indexed": true,
          "internalType": "address",
          "name": "owner",
          "type": "address"
        },
        {
          "indexed": true,
          "internalType": "address",
          "name": "approved",
          "type": "address"
        },
        {
          "indexed": true,
          "internalType": "uint256",
          "name": "tokenId",
          "type": "uint256"
        }
      ],
      "name": "Approval",
      "type": "event"
    },
    {
      "anonymous": false,
      "inputs": [
        {
          "indexed": true,
          "internalType": "address",
          "name": "owner",
          "type": "address"
        },
        {
          "indexed": true,
          "internalType": "address",
          "name": "operator",
          "type": "address"
        },
        {
          "indexed": false,
          "internalType": "bool",
          "name": "approved",
          "type": "bool"
        }
      ],
      "name": "ApprovalForAll",
      "type": "event"
    },
    {
      "anonymous": false,
      "inputs": [
        {
          "indexed": false,
          "internalType": "address",
          "name": "msgSender",
          "type": "address"
        },
        {
          "indexed": false,
          "internalType": "uint256",
          "name": "fromTokenId",
          "type": "uint256"
        },
        {
          "indexed": false,
          "internalType": "uint256",
          "name": "toTokenId",
          "type": "uint256"
        }
      ],
      "name": "Mint",
      "type": "event"
    },
    {
      "anonymous": false,
      "inputs": [
        {
          "indexed": true,
          "internalType": "address",
          "name": "previousOwner",
          "type": "address"
        },
        {
          "indexed": true,
          "internalType": "address",
          "name": "newOwner",
          "type": "address"
        }
      ],
      "name": "OwnershipTransferred",
      "type": "event"
    },
    {
      "anonymous": false,
      "inputs": [
        {
          "indexed": true,
          "internalType": "address",
          "name": "from",
          "type": "address"
        },
        {
          "indexed": true,
          "internalType": "address",
          "name": "to",
          "type": "address"
        },
        {
          "indexed": true,
          "internalType": "uint256",
          "name": "tokenId",
          "type": "uint256"
        }
      ],
      "name": "Transfer",
      "type": "event"
    },
    {
      "inputs": [],
      "name": "EMPTY_ROOT",
      "outputs": [
        {
          "internalType": "bytes32",
          "name": "",
          "type": "bytes32"
        }
      ],
      "stateMutability": "view",
      "type": "function"
    },
    {
      "inputs": [
        {
          "internalType": "address",
          "name": "to",
          "type": "address"
        },
        {
          "internalType": "uint256",
          "name": "tokenId",
          "type": "uint256"
        }
      ],
      "name": "approve",
      "outputs": [],
      "stateMutability": "nonpayable",
      "type": "function"
    },
    {
      "inputs": [
        {
          "internalType": "address",
          "name": "owner",
          "type": "address"
        }
      ],
      "name": "balanceOf",
      "outputs": [
        {
          "internalType": "uint256",
          "name": "",
          "type": "uint256"
        }
      ],
      "stateMutability": "view",
      "type": "function"
    },
    {
      "inputs": [],
      "name": "contractURI",
      "outputs": [
        {
          "internalType": "string",
          "name": "",
          "type": "string"
        }
      ],
      "stateMutability": "view",
      "type": "function"
    },
    {
      "inputs": [
        {
          "internalType": "uint256",
          "name": "tokenId",
          "type": "uint256"
        }
      ],
      "name": "getApproved",
      "outputs": [
        {
          "internalType": "address",
          "name": "",
          "type": "address"
        }
      ],
      "stateMutability": "view",
      "type": "function"
    },
    {
      "inputs": [
        {
          "components": [
            {
              "internalType": "string",
              "name": "saleIdentifier",
              "type": "string"
            },
            {
              "internalType": "bool",
              "name": "enabled",
              "type": "bool"
            },
            {
              "internalType": "uint256",
              "name": "startTime",
              "type": "uint256"
            },
            {
              "internalType": "uint256",
              "name": "endTime",
              "type": "uint256"
            },
            {
              "internalType": "uint256",
              "name": "mintCharge",
              "type": "uint256"
            },
            {
              "internalType": "bytes32",
              "name": "whitelistRoot",
              "type": "bytes32"
            },
            {
              "internalType": "uint256",
              "name": "maxMintPerWallet",
              "type": "uint256"
            },
            {
              "internalType": "uint256",
              "name": "maxMintInSale",
              "type": "uint256"
            },
            {
              "internalType": "address",
              "name": "tokenGatedAddress",
              "type": "address"
            }
          ],
          "internalType": "struct Collection721.SaleConfig",
          "name": "config",
          "type": "tuple"
        }
      ],
      "name": "getSaleConfigLeaf",
      "outputs": [
        {
          "internalType": "bytes32",
          "name": "",
          "type": "bytes32"
        }
      ],
      "stateMutability": "pure",
      "type": "function"
    },
    {
      "inputs": [
        {
          "internalType": "address",
          "name": "owner",
          "type": "address"
        },
        {
          "internalType": "address",
          "name": "operator",
          "type": "address"
        }
      ],
      "name": "isApprovedForAll",
      "outputs": [
        {
          "internalType": "bool",
          "name": "",
          "type": "bool"
        }
      ],
      "stateMutability": "view",
      "type": "function"
    },
    {
      "inputs": [
        {
          "internalType": "bytes",
          "name": "",
          "type": "bytes"
        }
      ],
      "name": "isSignatureRedeemed",
      "outputs": [
        {
          "internalType": "bool",
          "name": "",
          "type": "bool"
        }
      ],
      "stateMutability": "view",
      "type": "function"
    },
    {
      "inputs": [
        {
          "components": [
            {
              "internalType": "bytes32[]",
              "name": "saleConfigProof",
              "type": "bytes32[]"
            },
            {
              "internalType": "bytes32[]",
              "name": "whitelistProof",
              "type": "bytes32[]"
            },
            {
              "internalType": "uint256",
              "name": "numberOfMint",
              "type": "uint256"
            },
            {
              "internalType": "string",
              "name": "message",
              "type": "string"
            },
            {
              "internalType": "bytes",
              "name": "signature",
              "type": "bytes"
            },
            {
              "components": [
                {
                  "internalType": "string",
                  "name": "saleIdentifier",
                  "type": "string"
                },
                {
                  "internalType": "bool",
                  "name": "enabled",
                  "type": "bool"
                },
                {
                  "internalType": "uint256",
                  "name": "startTime",
                  "type": "uint256"
                },
                {
                  "internalType": "uint256",
                  "name": "endTime",
                  "type": "uint256"
                },
                {
                  "internalType": "uint256",
                  "name": "mintCharge",
                  "type": "uint256"
                },
                {
                  "internalType": "bytes32",
                  "name": "whitelistRoot",
                  "type": "bytes32"
                },
                {
                  "internalType": "uint256",
                  "name": "maxMintPerWallet",
                  "type": "uint256"
                },
                {
                  "internalType": "uint256",
                  "name": "maxMintInSale",
                  "type": "uint256"
                },
                {
                  "internalType": "address",
                  "name": "tokenGatedAddress",
                  "type": "address"
                }
              ],
              "internalType": "struct Collection721.SaleConfig",
              "name": "config",
              "type": "tuple"
            },
            {
              "internalType": "uint256",
              "name": "whitelistMintLimit",
              "type": "uint256"
            }
          ],
          "internalType": "struct Collection721.MintArgs",
          "name": "args",
          "type": "tuple"
        }
      ],
      "name": "mint",
      "outputs": [],
      "stateMutability": "payable",
      "type": "function"
    },
    {
      "inputs": [],
      "name": "mintCount",
      "outputs": [
        {
          "internalType": "uint256",
          "name": "",
          "type": "uint256"
        }
      ],
      "stateMutability": "view",
      "type": "function"
    },
    {
      "inputs": [
        {
          "internalType": "string",
          "name": "",
          "type": "string"
        }
      ],
      "name": "mintCountByIdentifier",
      "outputs": [
        {
          "internalType": "uint256",
          "name": "",
          "type": "uint256"
        }
      ],
      "stateMutability": "view",
      "type": "function"
    },
    {
      "inputs": [
        {
          "internalType": "string",
          "name": "",
          "type": "string"
        },
        {
          "internalType": "address",
          "name": "",
          "type": "address"
        }
      ],
      "name": "mintCountByIdentifierWallet",
      "outputs": [
        {
          "internalType": "uint256",
          "name": "",
          "type": "uint256"
        }
      ],
      "stateMutability": "view",
      "type": "function"
    },
    {
      "inputs": [
        {
          "internalType": "address",
          "name": "",
          "type": "address"
        }
      ],
      "name": "mintCountByWallet",
      "outputs": [
        {
          "internalType": "uint256",
          "name": "",
          "type": "uint256"
        }
      ],
      "stateMutability": "view",
      "type": "function"
    },
    {
      "inputs": [],
      "name": "name",
      "outputs": [
        {
          "internalType": "string",
          "name": "",
          "type": "string"
        }
      ],
      "stateMutability": "view",
      "type": "function"
    },
    {
      "inputs": [],
      "name": "owner",
      "outputs": [
        {
          "internalType": "address",
          "name": "",
          "type": "address"
        }
      ],
      "stateMutability": "view",
      "type": "function"
    },
    {
      "inputs": [
        {
          "internalType": "uint256",
          "name": "tokenId",
          "type": "uint256"
        }
      ],
      "name": "ownerOf",
      "outputs": [
        {
          "internalType": "address",
          "name": "",
          "type": "address"
        }
      ],
      "stateMutability": "view",
      "type": "function"
    },
    {
      "inputs": [],
      "name": "renounceOwnership",
      "outputs": [],
      "stateMutability": "nonpayable",
      "type": "function"
    },
    {
      "inputs": [
        {
          "internalType": "uint256",
          "name": "_tokenId",
          "type": "uint256"
        },
        {
          "internalType": "uint256",
          "name": "_salePrice",
          "type": "uint256"
        }
      ],
      "name": "royaltyInfo",
      "outputs": [
        {
          "internalType": "address",
          "name": "",
          "type": "address"
        },
        {
          "internalType": "uint256",
          "name": "",
          "type": "uint256"
        }
      ],
      "stateMutability": "view",
      "type": "function"
    },
    {
      "inputs": [
        {
          "internalType": "address",
          "name": "_from",
          "type": "address"
        },
        {
          "internalType": "address",
          "name": "_to",
          "type": "address"
        },
        {
          "internalType": "uint256",
          "name": "_tokenId",
          "type": "uint256"
        }
      ],
      "name": "safeTransferFrom",
      "outputs": [],
      "stateMutability": "nonpayable",
      "type": "function"
    },
    {
      "inputs": [
        {
          "internalType": "address",
          "name": "_from",
          "type": "address"
        },
        {
          "internalType": "address",
          "name": "_to",
          "type": "address"
        },
        {
          "internalType": "uint256",
          "name": "_tokenId",
          "type": "uint256"
        },
        {
          "internalType": "bytes",
          "name": "data",
          "type": "bytes"
        }
      ],
      "name": "safeTransferFrom",
      "outputs": [],
      "stateMutability": "nonpayable",
      "type": "function"
    },
    {
      "inputs": [
        {
          "internalType": "address",
          "name": "operator",
          "type": "address"
        },
        {
          "internalType": "bool",
          "name": "approved",
          "type": "bool"
        }
      ],
      "name": "setApprovalForAll",
      "outputs": [],
      "stateMutability": "nonpayable",
      "type": "function"
    },
    {
      "inputs": [],
      "name": "state",
      "outputs": [
        {
          "internalType": "address",
          "name": "feeDestination",
          "type": "address"
        },
        {
          "internalType": "uint256",
          "name": "maxMintInTotalPerWallet",
          "type": "uint256"
        },
        {
          "internalType": "bytes32",
          "name": "saleConfigRoot",
          "type": "bytes32"
        },
        {
          "internalType": "address",
          "name": "msgSigner",
          "type": "address"
        },
        {
          "internalType": "string",
          "name": "baseURI",
          "type": "string"
        },
        {
          "internalType": "uint256",
          "name": "revealTime",
          "type": "uint256"
        },
        {
          "internalType": "uint96",
          "name": "royaltyBasis",
          "type": "uint96"
        },
        {
          "internalType": "address",
          "name": "platformOwner",
          "type": "address"
        },
        {
          "internalType": "uint256",
          "name": "maxMintCap",
          "type": "uint256"
        },
        {
          "internalType": "address",
          "name": "priceFeedAddress",
          "type": "address"
        }
      ],
      "stateMutability": "view",
      "type": "function"
    },
    {
      "inputs": [
        {
          "internalType": "bytes4",
          "name": "interfaceId",
          "type": "bytes4"
        }
      ],
      "name": "supportsInterface",
      "outputs": [
        {
          "internalType": "bool",
          "name": "",
          "type": "bool"
        }
      ],
      "stateMutability": "view",
      "type": "function"
    },
    {
      "inputs": [],
      "name": "symbol",
      "outputs": [
        {
          "internalType": "string",
          "name": "",
          "type": "string"
        }
      ],
      "stateMutability": "view",
      "type": "function"
    },
    {
      "inputs": [],
      "name": "tokenId",
      "outputs": [
        {
          "internalType": "uint256",
          "name": "",
          "type": "uint256"
        }
      ],
      "stateMutability": "view",
      "type": "function"
    },
    {
      "inputs": [
        {
          "internalType": "uint256",
          "name": "_tokenId",
          "type": "uint256"
        }
      ],
      "name": "tokenURI",
      "outputs": [
        {
          "internalType": "string",
          "name": "",
          "type": "string"
        }
      ],
      "stateMutability": "view",
      "type": "function"
    },
    {
      "inputs": [
        {
          "internalType": "address",
          "name": "_from",
          "type": "address"
        },
        {
          "internalType": "address",
          "name": "_to",
          "type": "address"
        },
        {
          "internalType": "uint256",
          "name": "_tokenId",
          "type": "uint256"
        }
      ],
      "name": "transferFrom",
      "outputs": [],
      "stateMutability": "nonpayable",
      "type": "function"
    },
    {
      "inputs": [
        {
          "internalType": "address",
          "name": "newOwner",
          "type": "address"
        }
      ],
      "name": "transferOwnership",
      "outputs": [],
      "stateMutability": "nonpayable",
      "type": "function"
    },
    {
      "inputs": [
        {
          "internalType": "string",
          "name": "_baseURI",
          "type": "string"
        }
      ],
      "name": "updateBaseURI",
      "outputs": [],
      "stateMutability": "nonpayable",
      "type": "function"
    },
    {
      "inputs": [
        {
          "internalType": "address",
          "name": "_feeDestination",
          "type": "address"
        }
      ],
      "name": "updateFeeToAddress",
      "outputs": [],
      "stateMutability": "nonpayable",
      "type": "function"
    },
    {
      "inputs": [
        {
          "internalType": "uint256",
          "name": "_val",
          "type": "uint256"
        }
      ],
      "name": "updateMaxMintInTotalPerWallet",
      "outputs": [],
      "stateMutability": "nonpayable",
      "type": "function"
    },
    {
      "inputs": [
        {
          "internalType": "address",
          "name": "_address",
          "type": "address"
        }
      ],
      "name": "updatePlatformOwner",
      "outputs": [],
      "stateMutability": "nonpayable",
      "type": "function"
    },
    {
      "inputs": [
        {
          "internalType": "uint256",
          "name": "_revealTime",
          "type": "uint256"
        }
      ],
      "name": "updateRevealTime",
      "outputs": [],
      "stateMutability": "nonpayable",
      "type": "function"
    },
    {
      "inputs": [
        {
          "internalType": "uint96",
          "name": "_val",
          "type": "uint96"
        }
      ],
      "name": "updateRoyaltyBasis",
      "outputs": [],
      "stateMutability": "nonpayable",
      "type": "function"
    },
    {
      "inputs": [
        {
          "internalType": "bytes32",
          "name": "_saleConfigRoot",
          "type": "bytes32"
        }
      ],
      "name": "updateSaleConfigRoot",
      "outputs": [],
      "stateMutability": "nonpayable",
      "type": "function"
    },
    {
      "stateMutability": "payable",
      "type": "receive"
    }
  ],
  "bytecode": "0x608060405260016013556000601455604051620044a0380380620044a08339810160408190526200003091620006e9565b80516020820151733cc6cdda760b79bafa08df41ecfa224f810dceb6916001916200005b3362000461565b6001620000698382620008d0565b506002620000788282620008d0565b50506001600955506daaeb6d7670e522a718067333cd4e3b15620001c55780156200011357604051633e9f1edf60e11b81523060048201526001600160a01b03831660248201526daaeb6d7670e522a718067333cd4e90637d3e3dbe906044015b600060405180830381600087803b158015620000f457600080fd5b505af115801562000109573d6000803e3d6000fd5b50505050620001c5565b6001600160a01b03821615620001645760405163a0af290360e01b81523060048201526001600160a01b03831660248201526daaeb6d7670e522a718067333cd4e9063a0af290390604401620000d9565b604051632210724360e11b81523060048201526daaeb6d7670e522a718067333cd4e90634420e48690602401600060405180830381600087803b158015620001ab57600080fd5b505af1158015620001c0573d6000803e3d6000fd5b505050505b50506101608101516001600160a01b031615620002f05760008161016001516001600160a01b031663feaf968c6040518163ffffffff1660e01b815260040160a060405180830381865afa15801562000222573d6000803e3d6000fd5b505050506040513d601f19601f82011682018060405250810190620002489190620009b4565b5050509150506305f5e10081606462000262919062000a1f565b6200026e919062000a5b565b610140830151620002889067d02ab486cedc000062000a1f565b62000294919062000a5b565b341215620002e95760405162461bcd60e51b815260206004820152601a60248201527f4e6f7420656e6f756768206368617267652070726f766964656400000000000060448201526064015b60405180910390fd5b5062000359565b610140810151620003089065886c98b7600062000a9b565b341015620003595760405162461bcd60e51b815260206004820152601a60248201527f4e6f7420656e6f756768206368617267652070726f76696465640000000000006044820152606401620002e0565b6040810151600a80546001600160a01b039283166001600160a01b0319918216179091556080830151600c5560a0830151600d805491909316911617905560c0810151600e90620003ab9082620008d0565b506060810151600b5560e0810151600f55610100810151620003cf903090620004b1565b6101008101516101208201516001600160a01b039081166c0100000000000000000000000081026001600160601b039093169290921760105561014083015160115561016083015160128054919092166001600160a01b03199091161790556040513480156108fc02916000818181858888f1935050505015801562000459573d6000803e3d6000fd5b505062000ab5565b600080546001600160a01b038381166001600160a01b0319831681178455604051919092169283917f8be0079c531659141344cd1fd0a4f28419497f9722a3daafe3b4186f6b6457e09190a35050565b6127106001600160601b0382161115620005215760405162461bcd60e51b815260206004820152602a60248201527f455243323938313a20726f79616c7479206665652077696c6c206578636565646044820152692073616c65507269636560b01b6064820152608401620002e0565b6001600160a01b038216620005795760405162461bcd60e51b815260206004820152601960248201527f455243323938313a20696e76616c6964207265636569766572000000000000006044820152606401620002e0565b604080518082019091526001600160a01b039092168083526001600160601b039091166020909201829052600160a01b90910217600755565b634e487b7160e01b600052604160045260246000fd5b60405161018081016001600160401b0381118282101715620005ee57620005ee620005b2565b60405290565b604051601f8201601f191681016001600160401b03811182821017156200061f576200061f620005b2565b604052919050565b600082601f8301126200063957600080fd5b81516001600160401b03811115620006555762000655620005b2565b60206200066b601f8301601f19168201620005f4565b82815285828487010111156200068057600080fd5b60005b83811015620006a057858101830151828201840152820162000683565b506000928101909101919091529392505050565b80516001600160a01b0381168114620006cc57600080fd5b919050565b80516001600160601b0381168114620006cc57600080fd5b600060208284031215620006fc57600080fd5b81516001600160401b03808211156200071457600080fd5b9083019061018082860312156200072a57600080fd5b62000734620005c8565b8251828111156200074457600080fd5b620007528782860162000627565b8252506020830151828111156200076857600080fd5b620007768782860162000627565b6020830152506200078a60408401620006b4565b60408201526060830151606082015260808301516080820152620007b160a08401620006b4565b60a082015260c083015182811115620007c957600080fd5b620007d78782860162000627565b60c08301525060e083015160e08201526101009150620007f9828401620006d1565b8282015261012091506200080f828401620006b4565b8282015261014091508183015182820152610160915062000832828401620006b4565b91810191909152949350505050565b600181811c908216806200085657607f821691505b6020821081036200087757634e487b7160e01b600052602260045260246000fd5b50919050565b601f821115620008cb57600081815260208120601f850160051c81016020861015620008a65750805b601f850160051c820191505b81811015620008c757828155600101620008b2565b5050505b505050565b81516001600160401b03811115620008ec57620008ec620005b2565b6200090481620008fd845462000841565b846200087d565b602080601f8311600181146200093c5760008415620009235750858301515b600019600386901b1c1916600185901b178555620008c7565b600085815260208120601f198616915b828110156200096d578886015182559484019460019091019084016200094c565b50858210156200098c5787850151600019600388901b60f8161c191681555b5050505050600190811b01905550565b80516001600160501b0381168114620006cc57600080fd5b600080600080600060a08688031215620009cd57600080fd5b620009d8866200099c565b9450602086015193506040860151925060608601519150620009fd608087016200099c565b90509295509295909350565b634e487b7160e01b600052601160045260246000fd5b80820260008212600160ff1b8414161562000a3e5762000a3e62000a09565b818105831482151762000a555762000a5562000a09565b92915050565b60008262000a7957634e487b7160e01b600052601260045260246000fd5b600160ff1b82146000198414161562000a965762000a9662000a09565b500590565b808202811582820484141762000a555762000a5562000a09565b6139db8062000ac56000396000f3fe6080604052600436106101c85760003560e01c8063715018a6116100f8578063a22cb46511610090578063a22cb46514610641578063b88d4fde14610661578063ba4cc74914610681578063c19d93fb146106b9578063c87b56dd146106e4578063dc9f75f714610704578063e8a3d48514610724578063e985e9c514610739578063f2fde38b1461075957600080fd5b8063715018a61461054357806371a8f1941461055857806383699816146105855780638847d3d5146105a55780638da5cb5b146105c5578063931688cb146105e357806395d89b41146106035780639659867e146106185780639adffdc71461062e57600080fd5b8063210112f51161016b578063210112f51461040f57806323b872dd1461042f5780632a55205a1461044f5780632e411f221461048e57806342842e0e146104a357806361b5a2a2146104c35780636352211e146104e3578063655f07691461050357806370a082311461052357600080fd5b8063018779c7146102a457806301ffc9a7146102f457806306fdde0314610314578063081812fc14610336578063095ea7b3146103635780630b8c17851461038357806317d70f7c146103d95780631b34f107146103ef57600080fd5b3661029f57600060646101dc346002612c5d565b6101e69190612c74565b601054909150600160601b90046001600160a01b03161561024357601054604051600160601b9091046001600160a01b0316906108fc8315029083906000818181858888f19350505050158015610241573d6000803e3d6000fd5b505b600a546010546001600160a01b03918216916108fc91600160601b90041661026b5734610275565b6102758334612c96565b6040518115909202916000818181858888f1935050505015801561029d573d6000803e3d6000fd5b005b600080fd5b3480156102b057600080fd5b506102df6102bf366004612da9565b805160208183018101805160158252928201919093012091525460ff1681565b60405190151581526020015b60405180910390f35b34801561030057600080fd5b506102df61030f366004612df3565b610779565b34801561032057600080fd5b506103296107a4565b6040516102eb9190612e60565b34801561034257600080fd5b50610356610351366004612e73565b610836565b6040516102eb9190612e8c565b34801561036f57600080fd5b5061029d61037e366004612ebc565b61085d565b34801561038f57600080fd5b506103cb61039e366004612ee6565b81516020818401810180516017825292820194820194909420919093529091526000908152604090205481565b6040519081526020016102eb565b3480156103e557600080fd5b506103cb60135481565b3480156103fb57600080fd5b5061029d61040a366004612f33565b610977565b34801561041b57600080fd5b5061029d61042a366004612f33565b6109f6565b34801561043b57600080fd5b5061029d61044a366004612f4e565b610a20565b34801561045b57600080fd5b5061046f61046a366004612f8a565b610b75565b604080516001600160a01b0390931683526020830191909152016102eb565b34801561049a57600080fd5b506103cb600081565b3480156104af57600080fd5b5061029d6104be366004612f4e565b610c23565b3480156104cf57600080fd5b5061029d6104de366004612e73565b610d6d565b3480156104ef57600080fd5b506103566104fe366004612e73565b610d7a565b34801561050f57600080fd5b506103cb61051e36600461306c565b610dae565b34801561052f57600080fd5b506103cb61053e366004612f33565b610e29565b34801561054f57600080fd5b5061029d610eaf565b34801561056457600080fd5b506103cb610573366004612f33565b60186020526000908152604090205481565b34801561059157600080fd5b5061029d6105a0366004612e73565b610ec3565b3480156105b157600080fd5b5061029d6105c03660046130a0565b610ed0565b3480156105d157600080fd5b506000546001600160a01b0316610356565b3480156105ef57600080fd5b5061029d6105fe366004612da9565b610f04565b34801561060f57600080fd5b50610329610f1c565b34801561062457600080fd5b506103cb60145481565b61029d61063c366004613148565b610f2b565b34801561064d57600080fd5b5061029d61065c36600461325b565b6119a1565b34801561066d57600080fd5b5061029d61067c366004613292565b6119ac565b34801561068d57600080fd5b506103cb61069c366004612da9565b805160208183018101805160168252928201919093012091525481565b3480156106c557600080fd5b506106ce611b04565b6040516102eb9a999897969594939291906132f9565b3480156106f057600080fd5b506103296106ff366004612e73565b611bec565b34801561071057600080fd5b5061029d61071f366004612e73565b611c86565b34801561073057600080fd5b50610329611c93565b34801561074557600080fd5b506102df61075436600461336f565b611ce7565b34801561076557600080fd5b5061029d610774366004612f33565b611d15565b60006001600160e01b0319821663152a902d60e11b148061079e575061079e82611d8b565b92915050565b6060600180546107b390613399565b80601f01602080910402602001604051908101604052809291908181526020018280546107df90613399565b801561082c5780601f106108015761010080835404028352916020019161082c565b820191906000526020600020905b81548152906001019060200180831161080f57829003601f168201915b5050505050905090565b600061084182611db0565b506000908152600560205260409020546001600160a01b031690565b600061086882610d7a565b9050806001600160a01b0316836001600160a01b0316036108da5760405162461bcd60e51b815260206004820152602160248201527f4552433732313a20617070726f76616c20746f2063757272656e74206f776e656044820152603960f91b60648201526084015b60405180910390fd5b336001600160a01b03821614806108f657506108f68133611ce7565b6109685760405162461bcd60e51b815260206004820152603d60248201527f4552433732313a20617070726f76652063616c6c6572206973206e6f7420746f60448201527f6b656e206f776e6572206f7220617070726f76656420666f7220616c6c00000060648201526084016108d1565b6109728383611dd5565b505050565b601054600160601b90046001600160a01b031633146109ce5760405162461bcd60e51b815260206004820152601360248201527227b7363c90283630ba3337b9369027bbb732b960691b60448201526064016108d1565b601080546001600160a01b03909216600160601b026001600160601b03909216919091179055565b6109fe611e43565b600a80546001600160a01b0319166001600160a01b0392909216919091179055565b826daaeb6d7670e522a718067333cd4e3b15610b6457336001600160a01b03821603610a5657610a51848484611e9d565b610b6f565b604051633185c44d60e21b81526daaeb6d7670e522a718067333cd4e9063c617113490610a8990309033906004016133d3565b602060405180830381865afa158015610aa6573d6000803e3d6000fd5b505050506040513d601f19601f82011682018060405250810190610aca91906133ed565b8015610b455750604051633185c44d60e21b81526daaeb6d7670e522a718067333cd4e9063c617113490610b0490309085906004016133d3565b602060405180830381865afa158015610b21573d6000803e3d6000fd5b505050506040513d601f19601f82011682018060405250810190610b4591906133ed565b610b645733604051633b79c77360e21b81526004016108d19190612e8c565b610b6f848484611e9d565b50505050565b60008281526008602090815260408083208151808301909252546001600160a01b038116808352600160a01b9091046001600160601b0316928201929092528291610bea5750604080518082019091526007546001600160a01b0381168252600160a01b90046001600160601b031660208201525b602081015160009061271090610c09906001600160601b031687612c5d565b610c139190612c74565b91519350909150505b9250929050565b826daaeb6d7670e522a718067333cd4e3b15610d6257336001600160a01b03821603610c5457610a51848484611ece565b604051633185c44d60e21b81526daaeb6d7670e522a718067333cd4e9063c617113490610c8790309033906004016133d3565b602060405180830381865afa158015610ca4573d6000803e3d6000fd5b505050506040513d601f19601f82011682018060405250810190610cc891906133ed565b8015610d435750604051633185c44d60e21b81526daaeb6d7670e522a718067333cd4e9063c617113490610d0290309085906004016133d3565b602060405180830381865afa158015610d1f573d6000803e3d6000fd5b505050506040513d601f19601f82011682018060405250810190610d4391906133ed565b610d625733604051633b79c77360e21b81526004016108d19190612e8c565b610b6f848484611ece565b610d75611e43565b600b55565b600080610d8683611ee9565b90506001600160a01b03811661079e5760405162461bcd60e51b81526004016108d19061340a565b80516020808301516040808501516060860151608087015160a088015160c089015160e08a01516101008b0151965160009a610dee9a909998910161343c565b60408051601f19818403018152828252805160209182012090830152015b604051602081830303815290604052805190602001209050919050565b60006001600160a01b038216610e935760405162461bcd60e51b815260206004820152602960248201527f4552433732313a2061646472657373207a65726f206973206e6f7420612076616044820152683634b21037bbb732b960b91b60648201526084016108d1565b506001600160a01b031660009081526004602052604090205490565b610eb7611e43565b610ec16000611f04565b565b610ecb611e43565b600c55565b610ed8611e43565b610ee23082611f54565b601080546001600160601b0319166001600160601b0392909216919091179055565b610f0c611e43565b600e610f1882826134ee565b5050565b6060600280546107b390613399565b610f3361204d565b80516020820151604083015160a084015160c0850151601154601454610f5a9085906135ad565b1115610fa55760405162461bcd60e51b815260206004820152601a60248201527904d696e7420436f756e742065786365656473204d6178204361760341b60448201526064016108d1565b600c54610fe95760405162461bcd60e51b8152602060048201526012602482015271139bc81cd85b194818dbdb999a59dd5c995960721b60448201526064016108d1565b61100185600a60020154610ffc85610dae565b6120a6565b6110435760405162461bcd60e51b8152602060048201526013602482015272496e76616c69642053616c6520436f6e66696760681b60448201526064016108d1565b816020015161108a5760405162461bcd60e51b815260206004820152601360248201527214d85b19481a5cc81b9bdd08195b98589b1959606a1b60448201526064016108d1565b60408201514290158015906110a3575082604001518110155b6110ea5760405162461bcd60e51b815260206004820152601860248201527714d85b19481a185cc81b9bdd081cdd185c9d1959081e595d60421b60448201526064016108d1565b8260600151811115806110ff57506060830151155b61113c5760405162461bcd60e51b815260206004820152600e60248201526d14d85b19481a185cc8195b99195960921b60448201526064016108d1565b8260e00151846016856000015160405161115691906135c0565b90815260200160405180910390205461116f91906135ad565b11156111bd5760405162461bcd60e51b815260206004820152601e60248201527f4d6178204d696e7420696e2053616c65204c696d69742045786365656473000060448201526064016108d1565b6101008301516001600160a01b0316158015906111de575060008360800151115b1561129f57600184601785600001516040516111fa91906135c0565b9081526040805160209281900383019020336000908152925290205461122091906135ad565b111561129f5760405162461bcd60e51b815260206004820152604260248201527f546f6b656e2047617465642050616964204d696e74203a204d6178204d696e7460448201527f205065722057616c6c65742053616c65204c696d697420283129204578636565606482015261647360f01b608482015260a4016108d1565b6101008301516001600160a01b031661134f578260c0015184601785600001516040516112cc91906135c0565b908152604080516020928190038301902033600090815292529020546112f291906135ad565b111561134f5760405162461bcd60e51b815260206004820152602660248201527f4d6178204d696e74205065722057616c6c65742053616c65204c696d6974204560448201526578636565647360d01b60648201526084016108d1565b600b54156113d657600b54336000908152601860205260409020546113759086906135ad565b11156113d65760405162461bcd60e51b815260206004820152602a60248201527f4d6178204d696e74207065722057616c6c657420696e20746f74616c204c696d6044820152696974204578636565647360b01b60648201526084016108d1565b60a0830151158015906113f557506101008301516001600160a01b0316155b156115465760a08301516040516001600160601b03193360601b1660208201526034810184905261145d91879160540160408051601f1981840301815282825280516020918201209083015201604051602081830303815290604052805190602001206120a6565b6114a35760405162461bcd60e51b8152602060048201526017602482015276165bdd48185c99481b9bdd081dda1a5d195b1a5cdd1959604a1b60448201526064016108d1565b8184601785600001516040516114b991906135c0565b908152604080516020928190038301902033600090815292529020546114df91906135ad565b11156115465760405162461bcd60e51b815260206004820152603060248201527f4d6178204d696e74205065722057616c6c65742053616c652057686974656c6960448201526f73742d4c696d6974204578636565647360801b60648201526084016108d1565b8383608001516115569190612c5d565b3410156115a55760405162461bcd60e51b815260206004820152601f60248201527f4e6f7420656e6f756768206d696e74206368617267652070726f76696465640060448201526064016108d1565b8660400151876080015188606001516015826040516115c491906135c0565b9081526040519081900360200190205460ff16156116215760405162461bcd60e51b815260206004820152601a60248201527914da59db985d1d5c9948185b1c9958591e481c995919595b595960321b60448201526064016108d1565b600d546040516001600160a01b039091169061167090849061166a9061164f90339087908a906020016135dc565b604051602081830303815290604052805190602001206120bc565b906120f7565b6001600160a01b0316146116bf5760405162461bcd60e51b8152602060048201526016602482015275496e76616c6964204d696e74205369676e617475726560501b60448201526064016108d1565b60008a604001511161170a5760405162461bcd60e51b815260206004820152601460248201527304e756d626572206f66206d696e747320697320360641b60448201526064016108d1565b89604001516014600082825461172091906135ad565b92505081905550896040015160178b60a001516000015160405161174491906135c0565b908152604080516020928190038301902033600090815292528120805490919061176f9084906135ad565b92505081905550896040015160168b60a001516000015160405161179391906135c0565b908152602001604051809103902060008282546117b091906135ad565b90915550503360009081526018602052604081208054600192906117d59084906135ad565b92505081905550600160158b608001516040516117f291906135c0565b9081526040805191829003602001909120805492151560ff1990931692909217909155601354908b015161182690826135ad565b601355600061271061183a3461012c612c5d565b6118449190612c74565b601054909150600160601b90046001600160a01b0316156118a157601054604051600160601b9091046001600160a01b0316906108fc8315029083906000818181858888f1935050505015801561189f573d6000803e3d6000fd5b505b600a546010546001600160a01b03918216916108fc91600160601b9004166118c957346118d3565b6118d38334612c96565b6040518115909202916000818181858888f193505050501580156118fb573d6000803e3d6000fd5b5060005b8c6040015181101561192e5761191e3361191983866135ad565b61211b565b61192781613618565b90506118ff565b507f4c209b5fc8ad50758f13e2e1088ba56a560dff690a1c6fef26394f4c03821c4f338360016013546119619190612c96565b604080516001600160a01b03909416845260208401929092529082015260600160405180910390a1505050505050505050505061199e6001600955565b50565b610f18338383612228565b836daaeb6d7670e522a718067333cd4e3b15611af157336001600160a01b038216036119e3576119de858585856122f2565b611afd565b604051633185c44d60e21b81526daaeb6d7670e522a718067333cd4e9063c617113490611a1690309033906004016133d3565b602060405180830381865afa158015611a33573d6000803e3d6000fd5b505050506040513d601f19601f82011682018060405250810190611a5791906133ed565b8015611ad25750604051633185c44d60e21b81526daaeb6d7670e522a718067333cd4e9063c617113490611a9190309085906004016133d3565b602060405180830381865afa158015611aae573d6000803e3d6000fd5b505050506040513d601f19601f82011682018060405250810190611ad291906133ed565b611af15733604051633b79c77360e21b81526004016108d19190612e8c565b611afd858585856122f2565b5050505050565b600a8054600b54600c54600d54600e80546001600160a01b0395861696949593949290931692611b3390613399565b80601f0160208091040260200160405190810160405280929190818152602001828054611b5f90613399565b8015611bac5780601f10611b8157610100808354040283529160200191611bac565b820191906000526020600020905b815481529060010190602001808311611b8f57829003601f168201915b505050600584015460068501546007860154600890960154949591946001600160601b03821694506001600160a01b03600160601b90920482169350168a565b600f54606090600e9015801590611c055750600f544211155b611c1e5760405180602001604052806000815250611c3f565b6040518060400160405280600781526020016668696464656e2d60c81b8152505b611c4a306014612324565b611c53466124c6565b611c5c866124c6565b604051602001611c709594939291906136a4565b6040516020818303038152906040529050919050565b611c8e611e43565b600f55565b6060600e611ca2306014612324565b611cab466124c6565b601054611cc0906001600160601b03166124c6565b604051602001611cd39493929190613751565b604051602081830303815290604052905090565b6001600160a01b03918216600090815260066020908152604080832093909416825291909152205460ff1690565b611d1d611e43565b6001600160a01b038116611d825760405162461bcd60e51b815260206004820152602660248201527f4f776e61626c653a206e6577206f776e657220697320746865207a65726f206160448201526564647265737360d01b60648201526084016108d1565b61199e81611f04565b60006001600160e01b0319821663152a902d60e11b148061079e575061079e82612558565b611db9816125a8565b61199e5760405162461bcd60e51b81526004016108d19061340a565b600081815260056020526040902080546001600160a01b0319166001600160a01b0384169081179091558190611e0a82610d7a565b6001600160a01b03167f8c5be1e5ebec7d5bd14f71427d1e84f3dd0314c0f7b2291e5b200ac8c7c3b92560405160405180910390a45050565b6000546001600160a01b03163314610ec15760405162461bcd60e51b815260206004820181905260248201527f4f776e61626c653a2063616c6c6572206973206e6f7420746865206f776e657260448201526064016108d1565b611ea733826125c5565b611ec35760405162461bcd60e51b81526004016108d1906137ed565b610972838383612624565b610972838383604051806020016040528060008152506119ac565b6000908152600360205260409020546001600160a01b031690565b600080546001600160a01b038381166001600160a01b0319831681178455604051919092169283917f8be0079c531659141344cd1fd0a4f28419497f9722a3daafe3b4186f6b6457e09190a35050565b6127106001600160601b0382161115611fc25760405162461bcd60e51b815260206004820152602a60248201527f455243323938313a20726f79616c7479206665652077696c6c206578636565646044820152692073616c65507269636560b01b60648201526084016108d1565b6001600160a01b0382166120145760405162461bcd60e51b815260206004820152601960248201527822a921991c9c189d1034b73b30b634b2103932b1b2b4bb32b960391b60448201526064016108d1565b604080518082019091526001600160a01b039092168083526001600160601b039091166020909201829052600160a01b90910217600755565b60026009540361209f5760405162461bcd60e51b815260206004820152601f60248201527f5265656e7472616e637947756172643a207265656e7472616e742063616c6c0060448201526064016108d1565b6002600955565b6000826120b38584612788565b14949350505050565b6040517f19457468657265756d205369676e6564204d6573736167653a0a3332000000006020820152603c8101829052600090605c01610e0c565b600080600061210685856127cd565b915091506121138161280f565b509392505050565b6001600160a01b0382166121715760405162461bcd60e51b815260206004820181905260248201527f4552433732313a206d696e7420746f20746865207a65726f206164647265737360448201526064016108d1565b61217a816125a8565b156121975760405162461bcd60e51b81526004016108d19061383a565b6121a0816125a8565b156121bd5760405162461bcd60e51b81526004016108d19061383a565b6001600160a01b038216600081815260046020908152604080832080546001019055848352600390915280822080546001600160a01b0319168417905551839291907fddf252ad1be2c89b69c2b068fc378daa952ba7f163c4a11628f55a4df523b3ef908290a45050565b816001600160a01b0316836001600160a01b0316036122855760405162461bcd60e51b815260206004820152601960248201527822a9219b99189d1030b8383937bb32903a379031b0b63632b960391b60448201526064016108d1565b6001600160a01b03838116600081815260066020908152604080832094871680845294825291829020805460ff191686151590811790915591519182527f17307eab39ab6107e8899845ad3d59bd9653f200f220920489ca2b5937696c31910160405180910390a3505050565b6122fc33836125c5565b6123185760405162461bcd60e51b81526004016108d1906137ed565b610b6f84848484612954565b60606000612333836002612c5d565b61233e9060026135ad565b6001600160401b0381111561235557612355612ca9565b6040519080825280601f01601f19166020018201604052801561237f576020820181803683370190505b509050600360fc1b8160008151811061239a5761239a613871565b60200101906001600160f81b031916908160001a905350600f60fb1b816001815181106123c9576123c9613871565b60200101906001600160f81b031916908160001a90535060006123ed846002612c5d565b6123f89060016135ad565b90505b6001811115612470576f181899199a1a9b1b9c1cb0b131b232b360811b85600f166010811061242c5761242c613871565b1a60f81b82828151811061244257612442613871565b60200101906001600160f81b031916908160001a90535060049490941c9361246981613887565b90506123fb565b5083156124bf5760405162461bcd60e51b815260206004820181905260248201527f537472696e67733a20686578206c656e67746820696e73756666696369656e7460448201526064016108d1565b9392505050565b606060006124d383612987565b60010190506000816001600160401b038111156124f2576124f2612ca9565b6040519080825280601f01601f19166020018201604052801561251c576020820181803683370190505b5090508181016020015b600019016f181899199a1a9b1b9c1cb0b131b232b360811b600a86061a8153600a850494508461252657509392505050565b60006001600160e01b031982166380ac58cd60e01b148061258957506001600160e01b03198216635b5e139f60e01b145b8061079e57506301ffc9a760e01b6001600160e01b031983161461079e565b6000806125b483611ee9565b6001600160a01b0316141592915050565b6000806125d183610d7a565b9050806001600160a01b0316846001600160a01b031614806125f857506125f88185611ce7565b8061261c5750836001600160a01b031661261184610836565b6001600160a01b0316145b949350505050565b826001600160a01b031661263782610d7a565b6001600160a01b03161461265d5760405162461bcd60e51b81526004016108d19061389e565b6001600160a01b0382166126bf5760405162461bcd60e51b8152602060048201526024808201527f4552433732313a207472616e7366657220746f20746865207a65726f206164646044820152637265737360e01b60648201526084016108d1565b826001600160a01b03166126d282610d7a565b6001600160a01b0316146126f85760405162461bcd60e51b81526004016108d19061389e565b600081815260056020908152604080832080546001600160a01b03199081169091556001600160a01b0387811680865260048552838620805460001901905590871680865283862080546001019055868652600390945282852080549092168417909155905184937fddf252ad1be2c89b69c2b068fc378daa952ba7f163c4a11628f55a4df523b3ef91a4505050565b600081815b8451811015612113576127b9828683815181106127ac576127ac613871565b6020026020010151612a5d565b9150806127c581613618565b91505061278d565b60008082516041036128035760208301516040840151606085015160001a6127f787828585612a8c565b94509450505050610c1c565b50600090506002610c1c565b6000816004811115612823576128236138e3565b0361282b5750565b600181600481111561283f5761283f6138e3565b036128875760405162461bcd60e51b815260206004820152601860248201527745434453413a20696e76616c6964207369676e617475726560401b60448201526064016108d1565b600281600481111561289b5761289b6138e3565b036128e85760405162461bcd60e51b815260206004820152601f60248201527f45434453413a20696e76616c6964207369676e6174757265206c656e6774680060448201526064016108d1565b60038160048111156128fc576128fc6138e3565b0361199e5760405162461bcd60e51b815260206004820152602260248201527f45434453413a20696e76616c6964207369676e6174757265202773272076616c604482015261756560f01b60648201526084016108d1565b61295f848484612624565b61296b84848484612b46565b610b6f5760405162461bcd60e51b81526004016108d1906138f9565b60008072184f03e93ff9f4daa797ed6e38ed64bf6a1f0160401b83106129c65772184f03e93ff9f4daa797ed6e38ed64bf6a1f0160401b830492506040015b6904ee2d6d415b85acef8160201b83106129f0576904ee2d6d415b85acef8160201b830492506020015b662386f26fc100008310612a0e57662386f26fc10000830492506010015b6305f5e1008310612a26576305f5e100830492506008015b6127108310612a3a57612710830492506004015b60648310612a4c576064830492506002015b600a831061079e5760010192915050565b6000818310612a795760008281526020849052604090206124bf565b60008381526020839052604090206124bf565b6000806fa2a8918ca85bafe22016d0b997e4df60600160ff1b03831115612ab95750600090506003612b3d565b6040805160008082526020820180845289905260ff881692820192909252606081018690526080810185905260019060a0016020604051602081039080840390855afa158015612b0d573d6000803e3d6000fd5b5050604051601f1901519150506001600160a01b038116612b3657600060019250925050612b3d565b9150600090505b94509492505050565b60006001600160a01b0384163b15612c3c57604051630a85bd0160e11b81526001600160a01b0385169063150b7a0290612b8a90339089908890889060040161394b565b6020604051808303816000875af1925050508015612bc5575060408051601f3d908101601f19168201909252612bc291810190613988565b60015b612c22573d808015612bf3576040519150601f19603f3d011682016040523d82523d6000602084013e612bf8565b606091505b508051600003612c1a5760405162461bcd60e51b81526004016108d1906138f9565b805181602001fd5b6001600160e01b031916630a85bd0160e11b14905061261c565b506001949350505050565b634e487b7160e01b600052601160045260246000fd5b808202811582820484141761079e5761079e612c47565b600082612c9157634e487b7160e01b600052601260045260246000fd5b500490565b8181038181111561079e5761079e612c47565b634e487b7160e01b600052604160045260246000fd5b60405161012081016001600160401b0381118282101715612ce257612ce2612ca9565b60405290565b60405160e081016001600160401b0381118282101715612ce257612ce2612ca9565b604051601f8201601f191681016001600160401b0381118282101715612d3257612d32612ca9565b604052919050565b600082601f830112612d4b57600080fd5b81356001600160401b03811115612d6457612d64612ca9565b612d77601f8201601f1916602001612d0a565b818152846020838601011115612d8c57600080fd5b816020850160208301376000918101602001919091529392505050565b600060208284031215612dbb57600080fd5b81356001600160401b03811115612dd157600080fd5b61261c84828501612d3a565b6001600160e01b03198116811461199e57600080fd5b600060208284031215612e0557600080fd5b81356124bf81612ddd565b60005b83811015612e2b578181015183820152602001612e13565b50506000910152565b60008151808452612e4c816020860160208601612e10565b601f01601f19169290920160200192915050565b6020815260006124bf6020830184612e34565b600060208284031215612e8557600080fd5b5035919050565b6001600160a01b0391909116815260200190565b80356001600160a01b0381168114612eb757600080fd5b919050565b60008060408385031215612ecf57600080fd5b612ed883612ea0565b946020939093013593505050565b60008060408385031215612ef957600080fd5b82356001600160401b03811115612f0f57600080fd5b612f1b85828601612d3a565b925050612f2a60208401612ea0565b90509250929050565b600060208284031215612f4557600080fd5b6124bf82612ea0565b600080600060608486031215612f6357600080fd5b612f6c84612ea0565b9250612f7a60208501612ea0565b9150604084013590509250925092565b60008060408385031215612f9d57600080fd5b50508035926020909101359150565b801515811461199e57600080fd5b8035612eb781612fac565b60006101208284031215612fd857600080fd5b612fe0612cbf565b905081356001600160401b03811115612ff857600080fd5b61300484828501612d3a565b82525061301360208301612fba565b602082015260408201356040820152606082013560608201526080820135608082015260a082013560a082015260c082013560c082015260e082013560e0820152610100613062818401612ea0565b9082015292915050565b60006020828403121561307e57600080fd5b81356001600160401b0381111561309457600080fd5b61261c84828501612fc5565b6000602082840312156130b257600080fd5b81356001600160601b03811681146124bf57600080fd5b600082601f8301126130da57600080fd5b813560206001600160401b038211156130f5576130f5612ca9565b8160051b613104828201612d0a565b928352848101820192828101908785111561311e57600080fd5b83870192505b8483101561313d57823582529183019190830190613124565b979650505050505050565b60006020828403121561315a57600080fd5b81356001600160401b038082111561317157600080fd5b9083019060e0828603121561318557600080fd5b61318d612ce8565b82358281111561319c57600080fd5b6131a8878286016130c9565b8252506020830135828111156131bd57600080fd5b6131c9878286016130c9565b602083015250604083013560408201526060830135828111156131eb57600080fd5b6131f787828601612d3a565b60608301525060808301358281111561320f57600080fd5b61321b87828601612d3a565b60808301525060a08301358281111561323357600080fd5b61323f87828601612fc5565b60a08301525060c083013560c082015280935050505092915050565b6000806040838503121561326e57600080fd5b61327783612ea0565b9150602083013561328781612fac565b809150509250929050565b600080600080608085870312156132a857600080fd5b6132b185612ea0565b93506132bf60208601612ea0565b92506040850135915060608501356001600160401b038111156132e157600080fd5b6132ed87828801612d3a565b91505092959194509250565b600061014060018060a01b03808e1684528c60208501528b6040850152808b1660608501528160808501526133308285018b612e34565b60a08501999099526001600160601b039790971660c0840152505092841660e08401526101008301919091529091166101209091015295945050505050565b6000806040838503121561338257600080fd5b61338b83612ea0565b9150612f2a60208401612ea0565b600181811c908216806133ad57607f821691505b6020821081036133cd57634e487b7160e01b600052602260045260246000fd5b50919050565b6001600160a01b0392831681529116602082015260400190565b6000602082840312156133ff57600080fd5b81516124bf81612fac565b602080825260189082015277115490cdcc8c4e881a5b9d985b1a59081d1bdad95b88125160421b604082015260600190565b60008a5161344e818460208f01612e10565b99151560f81b919099019081526001810197909752602187019590955260418601939093526061850191909152608184015260a183015260601b6001600160601b03191660c182015260d50192915050565b601f82111561097257600081815260208120601f850160051c810160208610156134c75750805b601f850160051c820191505b818110156134e6578281556001016134d3565b505050505050565b81516001600160401b0381111561350757613507612ca9565b61351b816135158454613399565b846134a0565b602080601f83116001811461355057600084156135385750858301515b600019600386901b1c1916600185901b1785556134e6565b600085815260208120601f198616915b8281101561357f57888601518255948401946001909101908401613560565b508582101561359d5787850151600019600388901b60f8161c191681555b5050505050600190811b01905550565b8082018082111561079e5761079e612c47565b600082516135d2818460208701612e10565b9190910192915050565b606084901b6001600160601b03191681528251600090613603816014850160208801612e10565b60149201918201929092526034019392505050565b60006001820161362a5761362a612c47565b5060010190565b6000815461363e81613399565b60018281168015613656576001811461366b5761369a565b60ff198416875282151583028701945061369a565b8560005260208060002060005b858110156136915781548a820152908401908201613678565b50505082870194505b5050505092915050565b60006136b08288613631565b86516136c0818360208b01612e10565b71746f6b656e2d7572693f616464726573733d60701b910190815285516136ee816012840160208a01612e10565b68266e6574776f726b3d60b81b60129290910191820152845161371881601b840160208901612e10565b6826746f6b656e49643d60b81b601b92909101918201528351613742816024840160208801612e10565b01602401979650505050505050565b600061375d8287613631565b74636f6e74726163742d7572693f616464726573733d60581b8152855161378b816015840160208a01612e10565b68266e6574776f726b3d60b81b6015929091019182015284516137b581601e840160208901612e10565b6826726f79616c74793d60b81b601e929091019182015283516137df816027840160208801612e10565b016027019695505050505050565b6020808252602d908201527f4552433732313a2063616c6c6572206973206e6f7420746f6b656e206f776e6560408201526c1c881bdc88185c1c1c9bdd9959609a1b606082015260800190565b6020808252601c908201527f4552433732313a20746f6b656e20616c7265616479206d696e74656400000000604082015260600190565b634e487b7160e01b600052603260045260246000fd5b60008161389657613896612c47565b506000190190565b60208082526025908201527f4552433732313a207472616e736665722066726f6d20696e636f72726563742060408201526437bbb732b960d91b606082015260800190565b634e487b7160e01b600052602160045260246000fd5b60208082526032908201527f4552433732313a207472616e7366657220746f206e6f6e20455243373231526560408201527131b2b4bb32b91034b6b83632b6b2b73a32b960711b606082015260800190565b6001600160a01b038581168252841660208201526040810183905260806060820181905260009061397e90830184612e34565b9695505050505050565b60006020828403121561399a57600080fd5b81516124bf81612ddd56fea26469706673582212204bc28ccfddcd79716d8ef09b35259ce3392e1f96f918ff42c58fb6de530b1c6864736f6c63430008110033",
  "linkReferences": {},
  "deployedLinkReferences": {}
}