{
  "_format": "hh-sol-artifact-1",
  "contractName": "Collection1155",
  "sourceName": "contracts/hydro/hydro-dftsw/Collection1155.sol",
  "abi": [
    {
      "inputs": [
        {
          "components": [
            {
              "internalType": "string",
              "name": "_name",
              "type": "string"
            },
            {
              "internalType": "address",
              "name": "_feeDestination",
              "type": "address"
            },
            {
              "internalType": "uint256",
              "name": "_maxMintInTotalPerWallet",
              "type": "uint256"
            },
            {
              "internalType": "bytes32",
              "name": "_saleConfigRoot",
              "type": "bytes32"
            },
            {
              "internalType": "address",
              "name": "_msgSigner",
              "type": "address"
            },
            {
              "internalType": "string",
              "name": "_baseURI",
              "type": "string"
            },
            {
              "internalType": "uint256",
              "name": "_revealTime",
              "type": "uint256"
            },
            {
              "internalType": "uint96",
              "name": "_royaltyBasis",
              "type": "uint96"
            },
            {
              "internalType": "address",
              "name": "_platformOwner",
              "type": "address"
            },
            {
              "internalType": "uint256",
              "name": "_maxMintCap",
              "type": "uint256"
            },
            {
              "internalType": "address",
              "name": "_priceFeedAddress",
              "type": "address"
            }
          ],
          "internalType": "struct Collection1155.ConstructorArgs",
          "name": "args",
          "type": "tuple"
        }
      ],
      "stateMutability": "payable",
      "type": "constructor"
    },
    {
      "inputs": [
        {
          "internalType": "address",
          "name": "operator",
          "type": "address"
        }
      ],
      "name": "OperatorNotAllowed",
      "type": "error"
    },
    {
      "anonymous": false,
      "inputs": [
        {
          "indexed": true,
          "internalType": "address",
          "name": "account",
          "type": "address"
        },
        {
          "indexed": true,
          "internalType": "address",
          "name": "operator",
          "type": "address"
        },
        {
          "indexed": false,
          "internalType": "bool",
          "name": "approved",
          "type": "bool"
        }
      ],
      "name": "ApprovalForAll",
      "type": "event"
    },
    {
      "anonymous": false,
      "inputs": [
        {
          "indexed": false,
          "internalType": "address",
          "name": "msgSender",
          "type": "address"
        },
        {
          "indexed": false,
          "internalType": "uint256",
          "name": "numberOfMint",
          "type": "uint256"
        }
      ],
      "name": "Mint",
      "type": "event"
    },
    {
      "anonymous": false,
      "inputs": [
        {
          "indexed": true,
          "internalType": "address",
          "name": "previousOwner",
          "type": "address"
        },
        {
          "indexed": true,
          "internalType": "address",
          "name": "newOwner",
          "type": "address"
        }
      ],
      "name": "OwnershipTransferred",
      "type": "event"
    },
    {
      "anonymous": false,
      "inputs": [
        {
          "indexed": true,
          "internalType": "address",
          "name": "operator",
          "type": "address"
        },
        {
          "indexed": true,
          "internalType": "address",
          "name": "from",
          "type": "address"
        },
        {
          "indexed": true,
          "internalType": "address",
          "name": "to",
          "type": "address"
        },
        {
          "indexed": false,
          "internalType": "uint256[]",
          "name": "ids",
          "type": "uint256[]"
        },
        {
          "indexed": false,
          "internalType": "uint256[]",
          "name": "values",
          "type": "uint256[]"
        }
      ],
      "name": "TransferBatch",
      "type": "event"
    },
    {
      "anonymous": false,
      "inputs": [
        {
          "indexed": true,
          "internalType": "address",
          "name": "operator",
          "type": "address"
        },
        {
          "indexed": true,
          "internalType": "address",
          "name": "from",
          "type": "address"
        },
        {
          "indexed": true,
          "internalType": "address",
          "name": "to",
          "type": "address"
        },
        {
          "indexed": false,
          "internalType": "uint256",
          "name": "id",
          "type": "uint256"
        },
        {
          "indexed": false,
          "internalType": "uint256",
          "name": "value",
          "type": "uint256"
        }
      ],
      "name": "TransferSingle",
      "type": "event"
    },
    {
      "anonymous": false,
      "inputs": [
        {
          "indexed": false,
          "internalType": "string",
          "name": "value",
          "type": "string"
        },
        {
          "indexed": true,
          "internalType": "uint256",
          "name": "id",
          "type": "uint256"
        }
      ],
      "name": "URI",
      "type": "event"
    },
    {
      "inputs": [],
      "name": "EMPTY_ROOT",
      "outputs": [
        {
          "internalType": "bytes32",
          "name": "",
          "type": "bytes32"
        }
      ],
      "stateMutability": "view",
      "type": "function"
    },
    {
      "inputs": [
        {
          "internalType": "address",
          "name": "account",
          "type": "address"
        },
        {
          "internalType": "uint256",
          "name": "id",
          "type": "uint256"
        }
      ],
      "name": "balanceOf",
      "outputs": [
        {
          "internalType": "uint256",
          "name": "",
          "type": "uint256"
        }
      ],
      "stateMutability": "view",
      "type": "function"
    },
    {
      "inputs": [
        {
          "internalType": "address[]",
          "name": "accounts",
          "type": "address[]"
        },
        {
          "internalType": "uint256[]",
          "name": "ids",
          "type": "uint256[]"
        }
      ],
      "name": "balanceOfBatch",
      "outputs": [
        {
          "internalType": "uint256[]",
          "name": "",
          "type": "uint256[]"
        }
      ],
      "stateMutability": "view",
      "type": "function"
    },
    {
      "inputs": [],
      "name": "contractURI",
      "outputs": [
        {
          "internalType": "string",
          "name": "",
          "type": "string"
        }
      ],
      "stateMutability": "view",
      "type": "function"
    },
    {
      "inputs": [
        {
          "components": [
            {
              "internalType": "string",
              "name": "saleIdentifier",
              "type": "string"
            },
            {
              "internalType": "bool",
              "name": "enabled",
              "type": "bool"
            },
            {
              "internalType": "uint256",
              "name": "startTime",
              "type": "uint256"
            },
            {
              "internalType": "uint256",
              "name": "endTime",
              "type": "uint256"
            },
            {
              "internalType": "uint256",
              "name": "mintCharge",
              "type": "uint256"
            },
            {
              "internalType": "bytes32",
              "name": "whitelistRoot",
              "type": "bytes32"
            },
            {
              "internalType": "uint256",
              "name": "maxMintPerWallet",
              "type": "uint256"
            },
            {
              "internalType": "uint256",
              "name": "maxMintInSale",
              "type": "uint256"
            },
            {
              "internalType": "address",
              "name": "tokenGatedAddress",
              "type": "address"
            }
          ],
          "internalType": "struct Collection1155.SaleConfig",
          "name": "config",
          "type": "tuple"
        }
      ],
      "name": "getSaleConfigLeaf",
      "outputs": [
        {
          "internalType": "bytes32",
          "name": "",
          "type": "bytes32"
        }
      ],
      "stateMutability": "pure",
      "type": "function"
    },
    {
      "inputs": [
        {
          "internalType": "address",
          "name": "account",
          "type": "address"
        },
        {
          "internalType": "address",
          "name": "operator",
          "type": "address"
        }
      ],
      "name": "isApprovedForAll",
      "outputs": [
        {
          "internalType": "bool",
          "name": "",
          "type": "bool"
        }
      ],
      "stateMutability": "view",
      "type": "function"
    },
    {
      "inputs": [
        {
          "internalType": "bytes",
          "name": "",
          "type": "bytes"
        }
      ],
      "name": "isSignatureRedeemed",
      "outputs": [
        {
          "internalType": "bool",
          "name": "",
          "type": "bool"
        }
      ],
      "stateMutability": "view",
      "type": "function"
    },
    {
      "inputs": [
        {
          "components": [
            {
              "internalType": "bytes32[]",
              "name": "saleConfigProof",
              "type": "bytes32[]"
            },
            {
              "internalType": "bytes32[]",
              "name": "whitelistProof",
              "type": "bytes32[]"
            },
            {
              "internalType": "uint256",
              "name": "numberOfMint",
              "type": "uint256"
            },
            {
              "internalType": "string",
              "name": "message",
              "type": "string"
            },
            {
              "internalType": "bytes",
              "name": "signature",
              "type": "bytes"
            },
            {
              "components": [
                {
                  "internalType": "string",
                  "name": "saleIdentifier",
                  "type": "string"
                },
                {
                  "internalType": "bool",
                  "name": "enabled",
                  "type": "bool"
                },
                {
                  "internalType": "uint256",
                  "name": "startTime",
                  "type": "uint256"
                },
                {
                  "internalType": "uint256",
                  "name": "endTime",
                  "type": "uint256"
                },
                {
                  "internalType": "uint256",
                  "name": "mintCharge",
                  "type": "uint256"
                },
                {
                  "internalType": "bytes32",
                  "name": "whitelistRoot",
                  "type": "bytes32"
                },
                {
                  "internalType": "uint256",
                  "name": "maxMintPerWallet",
                  "type": "uint256"
                },
                {
                  "internalType": "uint256",
                  "name": "maxMintInSale",
                  "type": "uint256"
                },
                {
                  "internalType": "address",
                  "name": "tokenGatedAddress",
                  "type": "address"
                }
              ],
              "internalType": "struct Collection1155.SaleConfig",
              "name": "config",
              "type": "tuple"
            },
            {
              "internalType": "uint256",
              "name": "whitelistMintLimit",
              "type": "uint256"
            }
          ],
          "internalType": "struct Collection1155.MintArgs",
          "name": "args",
          "type": "tuple"
        }
      ],
      "name": "mint",
      "outputs": [],
      "stateMutability": "payable",
      "type": "function"
    },
    {
      "inputs": [],
      "name": "mintCount",
      "outputs": [
        {
          "internalType": "uint256",
          "name": "",
          "type": "uint256"
        }
      ],
      "stateMutability": "view",
      "type": "function"
    },
    {
      "inputs": [
        {
          "internalType": "string",
          "name": "",
          "type": "string"
        }
      ],
      "name": "mintCountByIdentifier",
      "outputs": [
        {
          "internalType": "uint256",
          "name": "",
          "type": "uint256"
        }
      ],
      "stateMutability": "view",
      "type": "function"
    },
    {
      "inputs": [
        {
          "internalType": "string",
          "name": "",
          "type": "string"
        },
        {
          "internalType": "address",
          "name": "",
          "type": "address"
        }
      ],
      "name": "mintCountByIdentifierWallet",
      "outputs": [
        {
          "internalType": "uint256",
          "name": "",
          "type": "uint256"
        }
      ],
      "stateMutability": "view",
      "type": "function"
    },
    {
      "inputs": [
        {
          "internalType": "address",
          "name": "",
          "type": "address"
        }
      ],
      "name": "mintCountByWallet",
      "outputs": [
        {
          "internalType": "uint256",
          "name": "",
          "type": "uint256"
        }
      ],
      "stateMutability": "view",
      "type": "function"
    },
    {
      "inputs": [],
      "name": "owner",
      "outputs": [
        {
          "internalType": "address",
          "name": "",
          "type": "address"
        }
      ],
      "stateMutability": "view",
      "type": "function"
    },
    {
      "inputs": [],
      "name": "renounceOwnership",
      "outputs": [],
      "stateMutability": "nonpayable",
      "type": "function"
    },
    {
      "inputs": [
        {
          "internalType": "uint256",
          "name": "_tokenId",
          "type": "uint256"
        },
        {
          "internalType": "uint256",
          "name": "_salePrice",
          "type": "uint256"
        }
      ],
      "name": "royaltyInfo",
      "outputs": [
        {
          "internalType": "address",
          "name": "",
          "type": "address"
        },
        {
          "internalType": "uint256",
          "name": "",
          "type": "uint256"
        }
      ],
      "stateMutability": "view",
      "type": "function"
    },
    {
      "inputs": [
        {
          "internalType": "address",
          "name": "from",
          "type": "address"
        },
        {
          "internalType": "address",
          "name": "to",
          "type": "address"
        },
        {
          "internalType": "uint256[]",
          "name": "ids",
          "type": "uint256[]"
        },
        {
          "internalType": "uint256[]",
          "name": "amounts",
          "type": "uint256[]"
        },
        {
          "internalType": "bytes",
          "name": "data",
          "type": "bytes"
        }
      ],
      "name": "safeBatchTransferFrom",
      "outputs": [],
      "stateMutability": "nonpayable",
      "type": "function"
    },
    {
      "inputs": [
        {
          "internalType": "address",
          "name": "from",
          "type": "address"
        },
        {
          "internalType": "address",
          "name": "to",
          "type": "address"
        },
        {
          "internalType": "uint256",
          "name": "id",
          "type": "uint256"
        },
        {
          "internalType": "uint256",
          "name": "amount",
          "type": "uint256"
        },
        {
          "internalType": "bytes",
          "name": "data",
          "type": "bytes"
        }
      ],
      "name": "safeTransferFrom",
      "outputs": [],
      "stateMutability": "nonpayable",
      "type": "function"
    },
    {
      "inputs": [
        {
          "internalType": "address",
          "name": "operator",
          "type": "address"
        },
        {
          "internalType": "bool",
          "name": "approved",
          "type": "bool"
        }
      ],
      "name": "setApprovalForAll",
      "outputs": [],
      "stateMutability": "nonpayable",
      "type": "function"
    },
    {
      "inputs": [],
      "name": "state",
      "outputs": [
        {
          "internalType": "address",
          "name": "feeDestination",
          "type": "address"
        },
        {
          "internalType": "uint256",
          "name": "maxMintInTotalPerWallet",
          "type": "uint256"
        },
        {
          "internalType": "bytes32",
          "name": "saleConfigRoot",
          "type": "bytes32"
        },
        {
          "internalType": "address",
          "name": "msgSigner",
          "type": "address"
        },
        {
          "internalType": "string",
          "name": "baseURI",
          "type": "string"
        },
        {
          "internalType": "uint256",
          "name": "revealTime",
          "type": "uint256"
        },
        {
          "internalType": "uint96",
          "name": "royaltyBasis",
          "type": "uint96"
        },
        {
          "internalType": "address",
          "name": "platformOwner",
          "type": "address"
        },
        {
          "internalType": "uint256",
          "name": "maxMintCap",
          "type": "uint256"
        },
        {
          "internalType": "address",
          "name": "priceFeedAddress",
          "type": "address"
        }
      ],
      "stateMutability": "view",
      "type": "function"
    },
    {
      "inputs": [
        {
          "internalType": "bytes4",
          "name": "interfaceId",
          "type": "bytes4"
        }
      ],
      "name": "supportsInterface",
      "outputs": [
        {
          "internalType": "bool",
          "name": "",
          "type": "bool"
        }
      ],
      "stateMutability": "view",
      "type": "function"
    },
    {
      "inputs": [
        {
          "internalType": "uint256",
          "name": "_tokenId",
          "type": "uint256"
        }
      ],
      "name": "tokenURI",
      "outputs": [
        {
          "internalType": "string",
          "name": "",
          "type": "string"
        }
      ],
      "stateMutability": "view",
      "type": "function"
    },
    {
      "inputs": [
        {
          "internalType": "address",
          "name": "newOwner",
          "type": "address"
        }
      ],
      "name": "transferOwnership",
      "outputs": [],
      "stateMutability": "nonpayable",
      "type": "function"
    },
    {
      "inputs": [
        {
          "internalType": "string",
          "name": "_baseURI",
          "type": "string"
        }
      ],
      "name": "updateBaseURI",
      "outputs": [],
      "stateMutability": "nonpayable",
      "type": "function"
    },
    {
      "inputs": [
        {
          "internalType": "address",
          "name": "_feeDestination",
          "type": "address"
        }
      ],
      "name": "updateFeeToAddress",
      "outputs": [],
      "stateMutability": "nonpayable",
      "type": "function"
    },
    {
      "inputs": [
        {
          "internalType": "uint256",
          "name": "_val",
          "type": "uint256"
        }
      ],
      "name": "updateMaxMintInTotalPerWallet",
      "outputs": [],
      "stateMutability": "nonpayable",
      "type": "function"
    },
    {
      "inputs": [
        {
          "internalType": "address",
          "name": "_address",
          "type": "address"
        }
      ],
      "name": "updatePlatformOwner",
      "outputs": [],
      "stateMutability": "nonpayable",
      "type": "function"
    },
    {
      "inputs": [
        {
          "internalType": "uint256",
          "name": "_revealTime",
          "type": "uint256"
        }
      ],
      "name": "updateRevealTime",
      "outputs": [],
      "stateMutability": "nonpayable",
      "type": "function"
    },
    {
      "inputs": [
        {
          "internalType": "uint96",
          "name": "_val",
          "type": "uint96"
        }
      ],
      "name": "updateRoyaltyBasis",
      "outputs": [],
      "stateMutability": "nonpayable",
      "type": "function"
    },
    {
      "inputs": [
        {
          "internalType": "bytes32",
          "name": "_saleConfigRoot",
          "type": "bytes32"
        }
      ],
      "name": "updateSaleConfigRoot",
      "outputs": [],
      "stateMutability": "nonpayable",
      "type": "function"
    },
    {
      "inputs": [
        {
          "internalType": "uint256",
          "name": "",
          "type": "uint256"
        }
      ],
      "name": "uri",
      "outputs": [
        {
          "internalType": "string",
          "name": "",
          "type": "string"
        }
      ],
      "stateMutability": "view",
      "type": "function"
    },
    {
      "stateMutability": "payable",
      "type": "receive"
    }
  ],
  "bytecode": "0x6080604052600060145560405162004523380380620045238339810160408190526200002b91620006bc565b8051733cc6cdda760b79bafa08df41ecfa224f810dceb690600190620000513362000422565b6200005c8162000472565b5060016006556daaeb6d7670e522a718067333cd4e3b15620001a7578015620000f557604051633e9f1edf60e11b81523060048201526001600160a01b03831660248201526daaeb6d7670e522a718067333cd4e90637d3e3dbe906044015b600060405180830381600087803b158015620000d657600080fd5b505af1158015620000eb573d6000803e3d6000fd5b50505050620001a7565b6001600160a01b03821615620001465760405163a0af290360e01b81523060048201526001600160a01b03831660248201526daaeb6d7670e522a718067333cd4e9063a0af290390604401620000bb565b604051632210724360e11b81523060048201526daaeb6d7670e522a718067333cd4e90634420e48690602401600060405180830381600087803b1580156200018d57600080fd5b505af1158015620001a2573d6000803e3d6000fd5b505050505b50506101408101516001600160a01b031615620002d25760008161014001516001600160a01b031663feaf968c6040518163ffffffff1660e01b815260040160a060405180830381865afa15801562000204573d6000803e3d6000fd5b505050506040513d601f19601f820116820180604052508101906200022a919062000802565b5050509150506305f5e1008160646200024491906200086d565b620002509190620008a9565b6101208301516200026a9067d02ab486cedc00006200086d565b620002769190620008a9565b341215620002cb5760405162461bcd60e51b815260206004820152601a60248201527f4e6f7420656e6f756768206368617267652070726f766964656400000000000060448201526064015b60405180910390fd5b506200033b565b610120810151620002ea9065886c98b76000620008e9565b3410156200033b5760405162461bcd60e51b815260206004820152601a60248201527f4e6f7420656e6f756768206368617267652070726f76696465640000000000006044820152606401620002c2565b6020810151600780546001600160a01b039283166001600160a01b03199182161790915560608301516009556080830151600a805491909316911617905560a0810151600b906200038d908262000992565b50604081015160085560c0810151600c5560e0810151620003b090309062000484565b60e08101516101008201516001600160a01b03166c0100000000000000000000000081026001600160601b0390921691909117600d55610120820151600e556040513480156108fc02916000818181858888f193505050501580156200041a573d6000803e3d6000fd5b505062000a5e565b600080546001600160a01b038381166001600160a01b0319831681178455604051919092169283917f8be0079c531659141344cd1fd0a4f28419497f9722a3daafe3b4186f6b6457e09190a35050565b600362000480828262000992565b5050565b6127106001600160601b0382161115620004f45760405162461bcd60e51b815260206004820152602a60248201527f455243323938313a20726f79616c7479206665652077696c6c206578636565646044820152692073616c65507269636560b01b6064820152608401620002c2565b6001600160a01b0382166200054c5760405162461bcd60e51b815260206004820152601960248201527f455243323938313a20696e76616c6964207265636569766572000000000000006044820152606401620002c2565b604080518082019091526001600160a01b039092168083526001600160601b039091166020909201829052600160a01b90910217600455565b634e487b7160e01b600052604160045260246000fd5b60405161016081016001600160401b0381118282101715620005c157620005c162000585565b60405290565b604051601f8201601f191681016001600160401b0381118282101715620005f257620005f262000585565b604052919050565b600082601f8301126200060c57600080fd5b81516001600160401b0381111562000628576200062862000585565b60206200063e601f8301601f19168201620005c7565b82815285828487010111156200065357600080fd5b60005b838110156200067357858101830151828201840152820162000656565b506000928101909101919091529392505050565b80516001600160a01b03811681146200069f57600080fd5b919050565b80516001600160601b03811681146200069f57600080fd5b600060208284031215620006cf57600080fd5b81516001600160401b0380821115620006e757600080fd5b908301906101608286031215620006fd57600080fd5b620007076200059b565b8251828111156200071757600080fd5b6200072587828601620005fa565b825250620007366020840162000687565b602082015260408301516040820152606083015160608201526200075d6080840162000687565b608082015260a0830151828111156200077557600080fd5b6200078387828601620005fa565b60a08301525060c083015160c0820152620007a160e08401620006a4565b60e08201526101009150620007b882840162000687565b82820152610120915081830151828201526101409150620007db82840162000687565b91810191909152949350505050565b80516001600160501b03811681146200069f57600080fd5b600080600080600060a086880312156200081b57600080fd5b6200082686620007ea565b94506020860151935060408601519250606086015191506200084b60808701620007ea565b90509295509295909350565b634e487b7160e01b600052601160045260246000fd5b80820260008212600160ff1b841416156200088c576200088c62000857565b8181058314821517620008a357620008a362000857565b92915050565b600082620008c757634e487b7160e01b600052601260045260246000fd5b600160ff1b821460001984141615620008e457620008e462000857565b500590565b8082028115828204841417620008a357620008a362000857565b600181811c908216806200091857607f821691505b6020821081036200093957634e487b7160e01b600052602260045260246000fd5b50919050565b601f8211156200098d57600081815260208120601f850160051c81016020861015620009685750805b601f850160051c820191505b81811015620009895782815560010162000974565b5050505b505050565b81516001600160401b03811115620009ae57620009ae62000585565b620009c681620009bf845462000903565b846200093f565b602080601f831160018114620009fe5760008415620009e55750858301515b600019600386901b1c1916600185901b17855562000989565b600085815260208120601f198616915b8281101562000a2f5788860151825594840194600190910190840162000a0e565b508582101562000a4e5787850151600019600388901b60f8161c191681555b5050505050600190811b01905550565b613ab58062000a6e6000396000f3fe6080604052600436106101705760003560e01c806383699816116100c757806383699816146104b15780638847d3d5146104d15780638da5cb5b146104f1578063931688cb146105175780639659867e146105375780639adffdc71461054d578063a22cb46514610560578063ba4cc74914610580578063c19d93fb146105b8578063c87b56dd146105e3578063dc9f75f714610603578063e8a3d48514610623578063e985e9c514610638578063f242432a14610681578063f2fde38b146106a157600080fd5b8062fdd58e1461024c578063018779c71461027f57806301ffc9a7146102ca5780630b8c1785146102ea5780630e89341c146103325780631b34f1071461035f578063210112f51461037f5780632a55205a1461039f5780632e411f22146103cd5780632eb2c2d6146103e25780634e1273f41461040257806361b5a2a21461042f578063655f07691461044f578063715018a61461046f57806371a8f1941461048457600080fd5b366102475760006064610184346002612a85565b61018e9190612a9c565b600d54909150600160601b90046001600160a01b0316156101eb57600d54604051600160601b9091046001600160a01b0316906108fc8315029083906000818181858888f193505050501580156101e9573d6000803e3d6000fd5b505b600754600d546001600160a01b03918216916108fc91600160601b900416610213573461021d565b61021d8334612abe565b6040518115909202916000818181858888f19350505050158015610245573d6000803e3d6000fd5b005b600080fd5b34801561025857600080fd5b5061026c610267366004612aed565b6106c1565b6040519081526020015b60405180910390f35b34801561028b57600080fd5b506102ba61029a366004612c17565b805160208183018101805160108252928201919093012091525460ff1681565b6040519015158152602001610276565b3480156102d657600080fd5b506102ba6102e5366004612c69565b61075c565b3480156102f657600080fd5b5061026c610305366004612c86565b81516020818401810180516012825292820194820194909420919093529091526000908152604090205481565b34801561033e57600080fd5b5061035261034d366004612cd3565b610781565b6040516102769190612d3c565b34801561036b57600080fd5b5061024561037a366004612d4f565b610815565b34801561038b57600080fd5b5061024561039a366004612d4f565b610894565b3480156103ab57600080fd5b506103bf6103ba366004612d6a565b6108be565b604051610276929190612d8c565b3480156103d957600080fd5b5061026c600081565b3480156103ee57600080fd5b506102456103fd366004612e39565b61096c565b34801561040e57600080fd5b5061042261041d366004612ee2565b610ac7565b6040516102769190612fe7565b34801561043b57600080fd5b5061024561044a366004612cd3565b610bf0565b34801561045b57600080fd5b5061026c61046a3660046130ba565b610bfd565b34801561047b57600080fd5b50610245610c78565b34801561049057600080fd5b5061026c61049f366004612d4f565b60136020526000908152604090205481565b3480156104bd57600080fd5b506102456104cc366004612cd3565b610c8c565b3480156104dd57600080fd5b506102456104ec3660046130ee565b610c99565b3480156104fd57600080fd5b506000546001600160a01b03166040516102769190613117565b34801561052357600080fd5b50610245610532366004612c17565b610ccd565b34801561054357600080fd5b5061026c60145481565b61024561055b36600461312b565b610ce5565b34801561056c57600080fd5b5061024561057b36600461323e565b6115fd565b34801561058c57600080fd5b5061026c61059b366004612c17565b805160208183018101805160118252928201919093012091525481565b3480156105c457600080fd5b506105cd611608565b6040516102769a99989796959493929190613275565b3480156105ef57600080fd5b506103526105fe366004612cd3565b6116f0565b34801561060f57600080fd5b5061024561061e366004612cd3565b6117bf565b34801561062f57600080fd5b506103526117cc565b34801561064457600080fd5b506102ba6106533660046132eb565b6001600160a01b03918216600090815260026020908152604080832093909416825291909152205460ff1690565b34801561068d57600080fd5b5061024561069c366004613315565b611820565b3480156106ad57600080fd5b506102456106bc366004612d4f565b61196e565b60006001600160a01b0383166107315760405162461bcd60e51b815260206004820152602a60248201527f455243313135353a2061646472657373207a65726f206973206e6f742061207660448201526930b634b21037bbb732b960b11b60648201526084015b60405180910390fd5b5060008181526001602090815260408083206001600160a01b03861684529091529020545b92915050565b60006001600160e01b0319821663152a902d60e11b14806107565750610756826119e4565b60606003805461079090613379565b80601f01602080910402602001604051908101604052809291908181526020018280546107bc90613379565b80156108095780601f106107de57610100808354040283529160200191610809565b820191906000526020600020905b8154815290600101906020018083116107ec57829003601f168201915b50505050509050919050565b600d54600160601b90046001600160a01b0316331461086c5760405162461bcd60e51b815260206004820152601360248201527227b7363c90283630ba3337b9369027bbb732b960691b6044820152606401610728565b600d80546001600160a01b03909216600160601b026001600160601b03909216919091179055565b61089c611a09565b600780546001600160a01b0319166001600160a01b0392909216919091179055565b60008281526005602090815260408083208151808301909252546001600160a01b038116808352600160a01b9091046001600160601b03169282019290925282916109335750604080518082019091526004546001600160a01b0381168252600160a01b90046001600160601b031660208201525b602081015160009061271090610952906001600160601b031687612a85565b61095c9190612a9c565b91519350909150505b9250929050565b846daaeb6d7670e522a718067333cd4e3b15610ab257336001600160a01b038216036109a45761099f8686868686611a63565b610abf565b604051633185c44d60e21b81526daaeb6d7670e522a718067333cd4e9063c6171134906109d790309033906004016133b3565b602060405180830381865afa1580156109f4573d6000803e3d6000fd5b505050506040513d601f19601f82011682018060405250810190610a1891906133cd565b8015610a935750604051633185c44d60e21b81526daaeb6d7670e522a718067333cd4e9063c617113490610a5290309085906004016133b3565b602060405180830381865afa158015610a6f573d6000803e3d6000fd5b505050506040513d601f19601f82011682018060405250810190610a9391906133cd565b610ab25733604051633b79c77360e21b81526004016107289190613117565b610abf8686868686611a63565b505050505050565b60608151835114610b2c5760405162461bcd60e51b815260206004820152602960248201527f455243313135353a206163636f756e747320616e6420696473206c656e677468604482015268040dad2e6dac2e8c6d60bb1b6064820152608401610728565b600083516001600160401b03811115610b4757610b47612b17565b604051908082528060200260200182016040528015610b70578160200160208202803683370190505b50905060005b8451811015610be857610bbb858281518110610b9457610b946133ea565b6020026020010151858381518110610bae57610bae6133ea565b60200260200101516106c1565b828281518110610bcd57610bcd6133ea565b6020908102919091010152610be181613400565b9050610b76565b509392505050565b610bf8611a09565b600855565b80516020808301516040808501516060860151608087015160a088015160c089015160e08a01516101008b0151965160009a610c3d9a9099989101613419565b60408051601f19818403018152828252805160209182012090830152015b604051602081830303815290604052805190602001209050919050565b610c80611a09565b610c8a6000611aaf565b565b610c94611a09565b600955565b610ca1611a09565b610cab3082611aff565b600d80546001600160601b0319166001600160601b0392909216919091179055565b610cd5611a09565b600b610ce182826134c8565b5050565b610ced611bf8565b80516020820151604083015160a084015160c0850151600e54601454610d14908590613587565b1115610d5f5760405162461bcd60e51b815260206004820152601a60248201527904d696e7420436f756e742065786365656473204d6178204361760341b6044820152606401610728565b600954610da35760405162461bcd60e51b8152602060048201526012602482015271139bc81cd85b194818dbdb999a59dd5c995960721b6044820152606401610728565b610dbb85600760020154610db685610bfd565b611c51565b610dfd5760405162461bcd60e51b8152602060048201526013602482015272496e76616c69642053616c6520436f6e66696760681b6044820152606401610728565b8160200151610e445760405162461bcd60e51b815260206004820152601360248201527214d85b19481a5cc81b9bdd08195b98589b1959606a1b6044820152606401610728565b6040820151429015801590610e5d575082604001518110155b610ea45760405162461bcd60e51b815260206004820152601860248201527714d85b19481a185cc81b9bdd081cdd185c9d1959081e595d60421b6044820152606401610728565b826060015181111580610eb957506060830151155b610ef65760405162461bcd60e51b815260206004820152600e60248201526d14d85b19481a185cc8195b99195960921b6044820152606401610728565b838360800151610f069190612a85565b341015610f555760405162461bcd60e51b815260206004820152601f60248201527f4e6f7420656e6f756768206d696e74206368617267652070726f7669646564006044820152606401610728565b8260e001518460118560000151604051610f6f919061359a565b908152602001604051809103902054610f889190613587565b1115610fcf5760405162461bcd60e51b81526020600482015260166024820152754d61782053616c65204c696d6974204578636565647360501b6044820152606401610728565b8260c001518460128560000151604051610fe9919061359a565b9081526040805160209281900383019020336000908152925290205461100f9190613587565b11156110705760405162461bcd60e51b815260206004820152602a60248201527f4d6178204d696e74205065722057616c6c6574205065722053616c65204c696d6044820152696974204578636565647360b01b6064820152608401610728565b600854156110f45760085433600090815260136020526040902054611096908690613587565b11156110f45760405162461bcd60e51b815260206004820152602760248201527f4d617820546f74616c204d696e74207065722057616c6c6574204c696d6974206044820152664578636565647360c81b6064820152608401610728565b60a08301511561124a5760a08301516040516001600160601b03193360601b1660208201526034810184905261116191879160540160408051601f198184030181528282528051602091820120908301520160405160208183030381529060405280519060200120611c51565b6111a75760405162461bcd60e51b8152602060048201526017602482015276165bdd48185c99481b9bdd081dda1a5d195b1a5cdd1959604a1b6044820152606401610728565b8184601285600001516040516111bd919061359a565b908152604080516020928190038301902033600090815292529020546111e39190613587565b111561124a5760405162461bcd60e51b815260206004820152603060248201527f4d6178204d696e74205065722057616c6c65742053616c652057686974656c6960448201526f73742d4c696d6974204578636565647360801b6064820152608401610728565b866040015187608001518860600151601082604051611269919061359a565b9081526040519081900360200190205460ff16156112c65760405162461bcd60e51b815260206004820152601a60248201527914da59db985d1d5c9948185b1c9958591e481c995919595b595960321b6044820152606401610728565b600a546040516001600160a01b039091169061131590849061130f906112f490339087908a906020016135b6565b60405160208183030381529060405280519060200120611c67565b90611ca2565b6001600160a01b0316146113645760405162461bcd60e51b8152602060048201526016602482015275496e76616c6964204d696e74205369676e617475726560501b6044820152606401610728565b60008a60400151116113af5760405162461bcd60e51b815260206004820152601460248201527304e756d626572206f66206d696e747320697320360641b6044820152606401610728565b896040015160128b60a00151600001516040516113cc919061359a565b90815260408051602092819003830190203360009081529252812080549091906113f7908490613587565b909155505060408a015160148054600090611413908490613587565b92505081905550896040015160118b60a0015160000151604051611437919061359a565b908152602001604051809103902060008282546114549190613587565b9091555050336000908152601360205260408120805460019290611479908490613587565b92505081905550600160108b60800151604051611496919061359a565b908152604051908190036020019020805491151560ff1990921691909117905560006127106114c73461012c612a85565b6114d19190612a9c565b600d54909150600160601b90046001600160a01b03161561152e57600d54604051600160601b9091046001600160a01b0316906108fc8315029083906000818181858888f1935050505015801561152c573d6000803e3d6000fd5b505b600754600d546001600160a01b03918216916108fc91600160601b9004166115565734611560565b6115608334612abe565b6040518115909202916000818181858888f19350505050158015611588573d6000803e3d6000fd5b506115a93360008d6040015160405180602001604052806000815250611cbe565b7f0f6798a560793a54c3bcfe86a93cde1e73087d944c0ea20544137d4121396885338c604001516040516115de929190612d8c565b60405180910390a1505050505050505050506115fa6001600655565b50565b610ce1338383611dd4565b60078054600854600954600a54600b80546001600160a01b039586169694959394929093169261163790613379565b80601f016020809104026020016040519081016040528092919081815260200182805461166390613379565b80156116b05780601f10611685576101008083540402835291602001916116b0565b820191906000526020600020905b81548152906001019060200180831161169357829003601f168201915b505050600584015460068501546007860154600890960154949591946001600160601b03821694506001600160a01b03600160601b90920482169350168a565b606081156117325760405162461bcd60e51b815260206004820152600f60248201526e125b9d985b1a59081d1bdad95b9259608a1b6044820152606401610728565b600c54600b90158015906117485750600c544211155b6117615760405180602001604052806000815250611782565b6040518060400160405280600781526020016668696464656e2d60c81b8152505b61178d306014611eb4565b61179646612056565b6040516020016117a99493929190613665565b6040516020818303038152906040529050919050565b6117c7611a09565b600c55565b6060600b6117db306014611eb4565b6117e446612056565b600d546117f9906001600160601b0316612056565b60405160200161180c94939291906136fe565b604051602081830303815290604052905090565b846daaeb6d7670e522a718067333cd4e3b1561196157336001600160a01b038216036118535761099f86868686866120e8565b604051633185c44d60e21b81526daaeb6d7670e522a718067333cd4e9063c61711349061188690309033906004016133b3565b602060405180830381865afa1580156118a3573d6000803e3d6000fd5b505050506040513d601f19601f820116820180604052508101906118c791906133cd565b80156119425750604051633185c44d60e21b81526daaeb6d7670e522a718067333cd4e9063c61711349061190190309085906004016133b3565b602060405180830381865afa15801561191e573d6000803e3d6000fd5b505050506040513d601f19601f8201168201806040525081019061194291906133cd565b6119615733604051633b79c77360e21b81526004016107289190613117565b610abf86868686866120e8565b611976611a09565b6001600160a01b0381166119db5760405162461bcd60e51b815260206004820152602660248201527f4f776e61626c653a206e6577206f776e657220697320746865207a65726f206160448201526564647265737360d01b6064820152608401610728565b6115fa81611aaf565b60006001600160e01b0319821663152a902d60e11b148061075657506107568261212d565b6000546001600160a01b03163314610c8a5760405162461bcd60e51b815260206004820181905260248201527f4f776e61626c653a2063616c6c6572206973206e6f7420746865206f776e65726044820152606401610728565b6001600160a01b038516331480611a7f5750611a7f8533610653565b611a9b5760405162461bcd60e51b81526004016107289061379a565b611aa8858585858561217d565b5050505050565b600080546001600160a01b038381166001600160a01b0319831681178455604051919092169283917f8be0079c531659141344cd1fd0a4f28419497f9722a3daafe3b4186f6b6457e09190a35050565b6127106001600160601b0382161115611b6d5760405162461bcd60e51b815260206004820152602a60248201527f455243323938313a20726f79616c7479206665652077696c6c206578636565646044820152692073616c65507269636560b01b6064820152608401610728565b6001600160a01b038216611bbf5760405162461bcd60e51b815260206004820152601960248201527822a921991c9c189d1034b73b30b634b2103932b1b2b4bb32b960391b6044820152606401610728565b604080518082019091526001600160a01b039092168083526001600160601b039091166020909201829052600160a01b90910217600455565b600260065403611c4a5760405162461bcd60e51b815260206004820152601f60248201527f5265656e7472616e637947756172643a207265656e7472616e742063616c6c006044820152606401610728565b6002600655565b600082611c5e8584612355565b14949350505050565b6040517f19457468657265756d205369676e6564204d6573736167653a0a3332000000006020820152603c8101829052600090605c01610c5b565b6000806000611cb1858561239a565b91509150610be8816123dc565b6001600160a01b038416611d1e5760405162461bcd60e51b815260206004820152602160248201527f455243313135353a206d696e7420746f20746865207a65726f206164647265736044820152607360f81b6064820152608401610728565b336000611d2a85612521565b90506000611d3785612521565b905060008681526001602090815260408083206001600160a01b038b16845290915281208054879290611d6b908490613587565b909155505060408051878152602081018790526001600160a01b03808a1692600092918716917fc3d58168c5ae7397731d063d5bbf3d657854427343f4c083240f7aacaa2d0f62910160405180910390a4611dcb8360008989898961256c565b50505050505050565b816001600160a01b0316836001600160a01b031603611e475760405162461bcd60e51b815260206004820152602960248201527f455243313135353a2073657474696e6720617070726f76616c20737461747573604482015268103337b91039b2b63360b91b6064820152608401610728565b6001600160a01b03838116600081815260026020908152604080832094871680845294825291829020805460ff191686151590811790915591519182527f17307eab39ab6107e8899845ad3d59bd9653f200f220920489ca2b5937696c31910160405180910390a3505050565b60606000611ec3836002612a85565b611ece906002613587565b6001600160401b03811115611ee557611ee5612b17565b6040519080825280601f01601f191660200182016040528015611f0f576020820181803683370190505b509050600360fc1b81600081518110611f2a57611f2a6133ea565b60200101906001600160f81b031916908160001a905350600f60fb1b81600181518110611f5957611f596133ea565b60200101906001600160f81b031916908160001a9053506000611f7d846002612a85565b611f88906001613587565b90505b6001811115612000576f181899199a1a9b1b9c1cb0b131b232b360811b85600f1660108110611fbc57611fbc6133ea565b1a60f81b828281518110611fd257611fd26133ea565b60200101906001600160f81b031916908160001a90535060049490941c93611ff9816137e8565b9050611f8b565b50831561204f5760405162461bcd60e51b815260206004820181905260248201527f537472696e67733a20686578206c656e67746820696e73756666696369656e746044820152606401610728565b9392505050565b60606000612063836126c7565b60010190506000816001600160401b0381111561208257612082612b17565b6040519080825280601f01601f1916602001820160405280156120ac576020820181803683370190505b5090508181016020015b600019016f181899199a1a9b1b9c1cb0b131b232b360811b600a86061a8153600a85049450846120b657509392505050565b6001600160a01b03851633148061210457506121048533610653565b6121205760405162461bcd60e51b81526004016107289061379a565b611aa8858585858561279d565b60006001600160e01b03198216636cdb3d1360e11b148061215e57506001600160e01b031982166303a24d0760e21b145b8061075657506301ffc9a760e01b6001600160e01b0319831614610756565b81518351146121df5760405162461bcd60e51b815260206004820152602860248201527f455243313135353a2069647320616e6420616d6f756e7473206c656e677468206044820152670dad2e6dac2e8c6d60c31b6064820152608401610728565b6001600160a01b0384166122055760405162461bcd60e51b8152600401610728906137ff565b3360005b84518110156122ef576000858281518110612226576122266133ea565b602002602001015190506000858381518110612244576122446133ea565b60209081029190910181015160008481526001835260408082206001600160a01b038e1683529093529190912054909150818110156122955760405162461bcd60e51b815260040161072890613844565b60008381526001602090815260408083206001600160a01b038e8116855292528083208585039055908b168252812080548492906122d4908490613587565b92505081905550505050806122e890613400565b9050612209565b50846001600160a01b0316866001600160a01b0316826001600160a01b03167f4a39dc06d4c0dbc64b70af90fd698a233a518aa5d07e595d983b8c0526c8f7fb878760405161233f92919061388e565b60405180910390a4610abf8187878787876128cb565b600081815b8451811015610be85761238682868381518110612379576123796133ea565b6020026020010151612986565b91508061239281613400565b91505061235a565b60008082516041036123d05760208301516040840151606085015160001a6123c4878285856129b5565b94509450505050610965565b50600090506002610965565b60008160048111156123f0576123f06138bc565b036123f85750565b600181600481111561240c5761240c6138bc565b036124545760405162461bcd60e51b815260206004820152601860248201527745434453413a20696e76616c6964207369676e617475726560401b6044820152606401610728565b6002816004811115612468576124686138bc565b036124b55760405162461bcd60e51b815260206004820152601f60248201527f45434453413a20696e76616c6964207369676e6174757265206c656e677468006044820152606401610728565b60038160048111156124c9576124c96138bc565b036115fa5760405162461bcd60e51b815260206004820152602260248201527f45434453413a20696e76616c6964207369676e6174757265202773272076616c604482015261756560f01b6064820152608401610728565b6040805160018082528183019092526060916000919060208083019080368337019050509050828160008151811061255b5761255b6133ea565b602090810291909101015292915050565b6001600160a01b0384163b15610abf5760405163f23a6e6160e01b81526001600160a01b0385169063f23a6e61906125b090899089908890889088906004016138d2565b6020604051808303816000875af19250505080156125eb575060408051601f3d908101601f191682019092526125e891810190613917565b60015b612697576125f7613934565b806308c379a003612630575061260b613950565b806126165750612632565b8060405162461bcd60e51b81526004016107289190612d3c565b505b60405162461bcd60e51b815260206004820152603460248201527f455243313135353a207472616e7366657220746f206e6f6e2d455243313135356044820152732932b1b2b4bb32b91034b6b83632b6b2b73a32b960611b6064820152608401610728565b6001600160e01b0319811663f23a6e6160e01b14611dcb5760405162461bcd60e51b8152600401610728906139d9565b60008072184f03e93ff9f4daa797ed6e38ed64bf6a1f0160401b83106127065772184f03e93ff9f4daa797ed6e38ed64bf6a1f0160401b830492506040015b6904ee2d6d415b85acef8160201b8310612730576904ee2d6d415b85acef8160201b830492506020015b662386f26fc10000831061274e57662386f26fc10000830492506010015b6305f5e1008310612766576305f5e100830492506008015b612710831061277a57612710830492506004015b6064831061278c576064830492506002015b600a83106107565760010192915050565b6001600160a01b0384166127c35760405162461bcd60e51b8152600401610728906137ff565b3360006127cf85612521565b905060006127dc85612521565b905060008681526001602090815260408083206001600160a01b038c168452909152902054858110156128215760405162461bcd60e51b815260040161072890613844565b60008781526001602090815260408083206001600160a01b038d8116855292528083208985039055908a16825281208054889290612860908490613587565b909155505060408051888152602081018890526001600160a01b03808b16928c821692918816917fc3d58168c5ae7397731d063d5bbf3d657854427343f4c083240f7aacaa2d0f62910160405180910390a46128c0848a8a8a8a8a61256c565b505050505050505050565b6001600160a01b0384163b15610abf5760405163bc197c8160e01b81526001600160a01b0385169063bc197c819061290f9089908990889088908890600401613a21565b6020604051808303816000875af192505050801561294a575060408051601f3d908101601f1916820190925261294791810190613917565b60015b612956576125f7613934565b6001600160e01b0319811663bc197c8160e01b14611dcb5760405162461bcd60e51b8152600401610728906139d9565b60008183106129a257600082815260208490526040902061204f565b600083815260208390526040902061204f565b6000806fa2a8918ca85bafe22016d0b997e4df60600160ff1b038311156129e25750600090506003612a66565b6040805160008082526020820180845289905260ff881692820192909252606081018690526080810185905260019060a0016020604051602081039080840390855afa158015612a36573d6000803e3d6000fd5b5050604051601f1901519150506001600160a01b038116612a5f57600060019250925050612a66565b9150600090505b94509492505050565b634e487b7160e01b600052601160045260246000fd5b808202811582820484141761075657610756612a6f565b600082612ab957634e487b7160e01b600052601260045260246000fd5b500490565b8181038181111561075657610756612a6f565b80356001600160a01b0381168114612ae857600080fd5b919050565b60008060408385031215612b0057600080fd5b612b0983612ad1565b946020939093013593505050565b634e487b7160e01b600052604160045260246000fd5b601f8201601f191681016001600160401b0381118282101715612b5257612b52612b17565b6040525050565b60405161012081016001600160401b0381118282101715612b7c57612b7c612b17565b60405290565b60405160e081016001600160401b0381118282101715612b7c57612b7c612b17565b600082601f830112612bb557600080fd5b81356001600160401b03811115612bce57612bce612b17565b604051612be5601f8301601f191660200182612b2d565b818152846020838601011115612bfa57600080fd5b816020850160208301376000918101602001919091529392505050565b600060208284031215612c2957600080fd5b81356001600160401b03811115612c3f57600080fd5b612c4b84828501612ba4565b949350505050565b6001600160e01b0319811681146115fa57600080fd5b600060208284031215612c7b57600080fd5b813561204f81612c53565b60008060408385031215612c9957600080fd5b82356001600160401b03811115612caf57600080fd5b612cbb85828601612ba4565b925050612cca60208401612ad1565b90509250929050565b600060208284031215612ce557600080fd5b5035919050565b60005b83811015612d07578181015183820152602001612cef565b50506000910152565b60008151808452612d28816020860160208601612cec565b601f01601f19169290920160200192915050565b60208152600061204f6020830184612d10565b600060208284031215612d6157600080fd5b61204f82612ad1565b60008060408385031215612d7d57600080fd5b50508035926020909101359150565b6001600160a01b03929092168252602082015260400190565b60006001600160401b03821115612dbe57612dbe612b17565b5060051b60200190565b600082601f830112612dd957600080fd5b81356020612de682612da5565b604051612df38282612b2d565b83815260059390931b8501820192828101915086841115612e1357600080fd5b8286015b84811015612e2e5780358352918301918301612e17565b509695505050505050565b600080600080600060a08688031215612e5157600080fd5b612e5a86612ad1565b9450612e6860208701612ad1565b935060408601356001600160401b0380821115612e8457600080fd5b612e9089838a01612dc8565b94506060880135915080821115612ea657600080fd5b612eb289838a01612dc8565b93506080880135915080821115612ec857600080fd5b50612ed588828901612ba4565b9150509295509295909350565b60008060408385031215612ef557600080fd5b82356001600160401b0380821115612f0c57600080fd5b818501915085601f830112612f2057600080fd5b81356020612f2d82612da5565b604051612f3a8282612b2d565b83815260059390931b8501820192828101915089841115612f5a57600080fd5b948201945b83861015612f7f57612f7086612ad1565b82529482019490820190612f5f565b96505086013592505080821115612f9557600080fd5b50612fa285828601612dc8565b9150509250929050565b600081518084526020808501945080840160005b83811015612fdc57815187529582019590820190600101612fc0565b509495945050505050565b60208152600061204f6020830184612fac565b80151581146115fa57600080fd5b8035612ae881612ffa565b6000610120828403121561302657600080fd5b61302e612b59565b905081356001600160401b0381111561304657600080fd5b61305284828501612ba4565b82525061306160208301613008565b602082015260408201356040820152606082013560608201526080820135608082015260a082013560a082015260c082013560c082015260e082013560e08201526101006130b0818401612ad1565b9082015292915050565b6000602082840312156130cc57600080fd5b81356001600160401b038111156130e257600080fd5b612c4b84828501613013565b60006020828403121561310057600080fd5b81356001600160601b038116811461204f57600080fd5b6001600160a01b0391909116815260200190565b60006020828403121561313d57600080fd5b81356001600160401b038082111561315457600080fd5b9083019060e0828603121561316857600080fd5b613170612b82565b82358281111561317f57600080fd5b61318b87828601612dc8565b8252506020830135828111156131a057600080fd5b6131ac87828601612dc8565b602083015250604083013560408201526060830135828111156131ce57600080fd5b6131da87828601612ba4565b6060830152506080830135828111156131f257600080fd5b6131fe87828601612ba4565b60808301525060a08301358281111561321657600080fd5b61322287828601613013565b60a08301525060c083013560c082015280935050505092915050565b6000806040838503121561325157600080fd5b61325a83612ad1565b9150602083013561326a81612ffa565b809150509250929050565b600061014060018060a01b03808e1684528c60208501528b6040850152808b1660608501528160808501526132ac8285018b612d10565b60a08501999099526001600160601b039790971660c0840152505092841660e08401526101008301919091529091166101209091015295945050505050565b600080604083850312156132fe57600080fd5b61330783612ad1565b9150612cca60208401612ad1565b600080600080600060a0868803121561332d57600080fd5b61333686612ad1565b945061334460208701612ad1565b9350604086013592506060860135915060808601356001600160401b0381111561336d57600080fd5b612ed588828901612ba4565b600181811c9082168061338d57607f821691505b6020821081036133ad57634e487b7160e01b600052602260045260246000fd5b50919050565b6001600160a01b0392831681529116602082015260400190565b6000602082840312156133df57600080fd5b815161204f81612ffa565b634e487b7160e01b600052603260045260246000fd5b60006001820161341257613412612a6f565b5060010190565b60008a5161342b818460208f01612cec565b99151560f81b919099019081526001810197909752602187019590955260418601939093526061850191909152608184015260a183015260601b6001600160601b03191660c182015260d50192915050565b601f8211156134c357600081815260208120601f850160051c810160208610156134a45750805b601f850160051c820191505b81811015610abf578281556001016134b0565b505050565b81516001600160401b038111156134e1576134e1612b17565b6134f5816134ef8454613379565b8461347d565b602080601f83116001811461352a57600084156135125750858301515b600019600386901b1c1916600185901b178555610abf565b600085815260208120601f198616915b828110156135595788860151825594840194600190910190840161353a565b50858210156135775787850151600019600388901b60f8161c191681555b5050505050600190811b01905550565b8082018082111561075657610756612a6f565b600082516135ac818460208701612cec565b9190910192915050565b606084901b6001600160601b031916815282516000906135dd816014850160208801612cec565b60149201918201929092526034019392505050565b600081546135ff81613379565b60018281168015613617576001811461362c5761365b565b60ff198416875282151583028701945061365b565b8560005260208060002060005b858110156136525781548a820152908401908201613639565b50505082870194505b5050505092915050565b600061367182876135f2565b8551613681818360208a01612cec565b71746f6b656e2d7572693f616464726573733d60701b910190815284516136af816012840160208901612cec565b68266e6574776f726b3d60b81b6012929091019182015283516136d981601b840160208801612cec565b69026746f6b656e49643d360b41b601b92909101918201526025019695505050505050565b600061370a82876135f2565b74636f6e74726163742d7572693f616464726573733d60581b81528551613738816015840160208a01612cec565b68266e6574776f726b3d60b81b60159290910191820152845161376281601e840160208901612cec565b6826726f79616c74793d60b81b601e9290910191820152835161378c816027840160208801612cec565b016027019695505050505050565b6020808252602e908201527f455243313135353a2063616c6c6572206973206e6f7420746f6b656e206f776e60408201526d195c881bdc88185c1c1c9bdd995960921b606082015260800190565b6000816137f7576137f7612a6f565b506000190190565b60208082526025908201527f455243313135353a207472616e7366657220746f20746865207a65726f206164604082015264647265737360d81b606082015260800190565b6020808252602a908201527f455243313135353a20696e73756666696369656e742062616c616e636520666f60408201526939103a3930b739b332b960b11b606082015260800190565b6040815260006138a16040830185612fac565b82810360208401526138b38185612fac565b95945050505050565b634e487b7160e01b600052602160045260246000fd5b6001600160a01b03868116825285166020820152604081018490526060810183905260a06080820181905260009061390c90830184612d10565b979650505050505050565b60006020828403121561392957600080fd5b815161204f81612c53565b600060033d111561394d5760046000803e5060005160e01c5b90565b600060443d101561395e5790565b6040516003193d81016004833e81513d6001600160401b03816024840111818411171561398d57505050505090565b82850191508151818111156139a55750505050505090565b843d87010160208285010111156139bf5750505050505090565b6139ce60208286010187612b2d565b509095945050505050565b60208082526028908201527f455243313135353a204552433131353552656365697665722072656a656374656040820152676420746f6b656e7360c01b606082015260800190565b6001600160a01b0386811682528516602082015260a060408201819052600090613a4d90830186612fac565b8281036060840152613a5f8186612fac565b90508281036080840152613a738185612d10565b9897505050505050505056fea26469706673582212201158579bdcc29d12447449436bdef30aedce37af0739874d1202c1be3bb9df9364736f6c63430008110033",
  "linkReferences": {},
  "deployedLinkReferences": {}
}